{
  "_format": "hh-sol-artifact-1",
  "contractName": "DOSToken",
  "sourceName": "contracts/DOSToken.sol",
  "abi": [
    {
      "inputs": [],
      "stateMutability": "nonpayable",
      "type": "constructor"
    },
    {
      "inputs": [],
      "name": "CheckpointUnorderedInsertion",
      "type": "error"
    },
    {
      "inputs": [],
      "name": "ECDSAInvalidSignature",
      "type": "error"
    },
    {
      "inputs": [
        {
          "internalType": "uint256",
          "name": "length",
          "type": "uint256"
        }
      ],
      "name": "ECDSAInvalidSignatureLength",
      "type": "error"
    },
    {
      "inputs": [
        {
          "internalType": "bytes32",
          "name": "s",
          "type": "bytes32"
        }
      ],
      "name": "ECDSAInvalidSignatureS",
      "type": "error"
    },
    {
      "inputs": [
        {
          "internalType": "uint256",
          "name": "increasedSupply",
          "type": "uint256"
        },
        {
          "internalType": "uint256",
          "name": "cap",
          "type": "uint256"
        }
      ],
      "name": "ERC20ExceededSafeSupply",
      "type": "error"
    },
    {
      "inputs": [
        {
          "internalType": "address",
          "name": "spender",
          "type": "address"
        },
        {
          "internalType": "uint256",
          "name": "allowance",
          "type": "uint256"
        },
        {
          "internalType": "uint256",
          "name": "needed",
          "type": "uint256"
        }
      ],
      "name": "ERC20InsufficientAllowance",
      "type": "error"
    },
    {
      "inputs": [
        {
          "internalType": "address",
          "name": "sender",
          "type": "address"
        },
        {
          "internalType": "uint256",
          "name": "balance",
          "type": "uint256"
        },
        {
          "internalType": "uint256",
          "name": "needed",
          "type": "uint256"
        }
      ],
      "name": "ERC20InsufficientBalance",
      "type": "error"
    },
    {
      "inputs": [
        {
          "internalType": "address",
          "name": "approver",
          "type": "address"
        }
      ],
      "name": "ERC20InvalidApprover",
      "type": "error"
    },
    {
      "inputs": [
        {
          "internalType": "address",
          "name": "receiver",
          "type": "address"
        }
      ],
      "name": "ERC20InvalidReceiver",
      "type": "error"
    },
    {
      "inputs": [
        {
          "internalType": "address",
          "name": "sender",
          "type": "address"
        }
      ],
      "name": "ERC20InvalidSender",
      "type": "error"
    },
    {
      "inputs": [
        {
          "internalType": "address",
          "name": "spender",
          "type": "address"
        }
      ],
      "name": "ERC20InvalidSpender",
      "type": "error"
    },
    {
      "inputs": [
        {
          "internalType": "uint256",
          "name": "deadline",
          "type": "uint256"
        }
      ],
      "name": "ERC2612ExpiredSignature",
      "type": "error"
    },
    {
      "inputs": [
        {
          "internalType": "address",
          "name": "signer",
          "type": "address"
        },
        {
          "internalType": "address",
          "name": "owner",
          "type": "address"
        }
      ],
      "name": "ERC2612InvalidSigner",
      "type": "error"
    },
    {
      "inputs": [
        {
          "internalType": "uint256",
          "name": "timepoint",
          "type": "uint256"
        },
        {
          "internalType": "uint48",
          "name": "clock",
          "type": "uint48"
        }
      ],
      "name": "ERC5805FutureLookup",
      "type": "error"
    },
    {
      "inputs": [],
      "name": "ERC6372InconsistentClock",
      "type": "error"
    },
    {
      "inputs": [
        {
          "internalType": "address",
          "name": "account",
          "type": "address"
        },
        {
          "internalType": "uint256",
          "name": "currentNonce",
          "type": "uint256"
        }
      ],
      "name": "InvalidAccountNonce",
      "type": "error"
    },
    {
      "inputs": [],
      "name": "InvalidShortString",
      "type": "error"
    },
    {
      "inputs": [
        {
          "internalType": "uint8",
          "name": "bits",
          "type": "uint8"
        },
        {
          "internalType": "uint256",
          "name": "value",
          "type": "uint256"
        }
      ],
      "name": "SafeCastOverflowedUintDowncast",
      "type": "error"
    },
    {
      "inputs": [
        {
          "internalType": "string",
          "name": "str",
          "type": "string"
        }
      ],
      "name": "StringTooLong",
      "type": "error"
    },
    {
      "inputs": [
        {
          "internalType": "uint256",
          "name": "expiry",
          "type": "uint256"
        }
      ],
      "name": "VotesExpiredSignature",
      "type": "error"
    },
    {
      "anonymous": false,
      "inputs": [
        {
          "indexed": true,
          "internalType": "address",
          "name": "owner",
          "type": "address"
        },
        {
          "indexed": true,
          "internalType": "address",
          "name": "spender",
          "type": "address"
        },
        {
          "indexed": false,
          "internalType": "uint256",
          "name": "value",
          "type": "uint256"
        }
      ],
      "name": "Approval",
      "type": "event"
    },
    {
      "anonymous": false,
      "inputs": [
        {
          "indexed": true,
          "internalType": "address",
          "name": "delegator",
          "type": "address"
        },
        {
          "indexed": true,
          "internalType": "address",
          "name": "fromDelegate",
          "type": "address"
        },
        {
          "indexed": true,
          "internalType": "address",
          "name": "toDelegate",
          "type": "address"
        }
      ],
      "name": "DelegateChanged",
      "type": "event"
    },
    {
      "anonymous": false,
      "inputs": [
        {
          "indexed": true,
          "internalType": "address",
          "name": "delegate",
          "type": "address"
        },
        {
          "indexed": false,
          "internalType": "uint256",
          "name": "previousVotes",
          "type": "uint256"
        },
        {
          "indexed": false,
          "internalType": "uint256",
          "name": "newVotes",
          "type": "uint256"
        }
      ],
      "name": "DelegateVotesChanged",
      "type": "event"
    },
    {
      "anonymous": false,
      "inputs": [],
      "name": "EIP712DomainChanged",
      "type": "event"
    },
    {
      "anonymous": false,
      "inputs": [
        {
          "indexed": true,
          "internalType": "address",
          "name": "from",
          "type": "address"
        },
        {
          "indexed": true,
          "internalType": "address",
          "name": "to",
          "type": "address"
        },
        {
          "indexed": false,
          "internalType": "uint256",
          "name": "value",
          "type": "uint256"
        }
      ],
      "name": "Transfer",
      "type": "event"
    },
    {
      "inputs": [],
      "name": "CLOCK_MODE",
      "outputs": [
        {
          "internalType": "string",
          "name": "",
          "type": "string"
        }
      ],
      "stateMutability": "view",
      "type": "function"
    },
    {
      "inputs": [],
      "name": "DOMAIN_SEPARATOR",
      "outputs": [
        {
          "internalType": "bytes32",
          "name": "",
          "type": "bytes32"
        }
      ],
      "stateMutability": "view",
      "type": "function"
    },
    {
      "inputs": [
        {
          "internalType": "address",
          "name": "owner",
          "type": "address"
        },
        {
          "internalType": "address",
          "name": "spender",
          "type": "address"
        }
      ],
      "name": "allowance",
      "outputs": [
        {
          "internalType": "uint256",
          "name": "",
          "type": "uint256"
        }
      ],
      "stateMutability": "view",
      "type": "function"
    },
    {
      "inputs": [
        {
          "internalType": "address",
          "name": "spender",
          "type": "address"
        },
        {
          "internalType": "uint256",
          "name": "value",
          "type": "uint256"
        }
      ],
      "name": "approve",
      "outputs": [
        {
          "internalType": "bool",
          "name": "",
          "type": "bool"
        }
      ],
      "stateMutability": "nonpayable",
      "type": "function"
    },
    {
      "inputs": [
        {
          "internalType": "address",
          "name": "account",
          "type": "address"
        }
      ],
      "name": "balanceOf",
      "outputs": [
        {
          "internalType": "uint256",
          "name": "",
          "type": "uint256"
        }
      ],
      "stateMutability": "view",
      "type": "function"
    },
    {
      "inputs": [
        {
          "internalType": "address",
          "name": "account",
          "type": "address"
        },
        {
          "internalType": "uint32",
          "name": "pos",
          "type": "uint32"
        }
      ],
      "name": "checkpoints",
      "outputs": [
        {
          "components": [
            {
              "internalType": "uint48",
              "name": "_key",
              "type": "uint48"
            },
            {
              "internalType": "uint208",
              "name": "_value",
              "type": "uint208"
            }
          ],
          "internalType": "struct Checkpoints.Checkpoint208",
          "name": "",
          "type": "tuple"
        }
      ],
      "stateMutability": "view",
      "type": "function"
    },
    {
      "inputs": [],
      "name": "clock",
      "outputs": [
        {
          "internalType": "uint48",
          "name": "",
          "type": "uint48"
        }
      ],
      "stateMutability": "view",
      "type": "function"
    },
    {
      "inputs": [],
      "name": "decimals",
      "outputs": [
        {
          "internalType": "uint8",
          "name": "",
          "type": "uint8"
        }
      ],
      "stateMutability": "view",
      "type": "function"
    },
    {
      "inputs": [
        {
          "internalType": "address",
          "name": "delegatee",
          "type": "address"
        }
      ],
      "name": "delegate",
      "outputs": [],
      "stateMutability": "nonpayable",
      "type": "function"
    },
    {
      "inputs": [
        {
          "internalType": "address",
          "name": "delegatee",
          "type": "address"
        },
        {
          "internalType": "uint256",
          "name": "nonce",
          "type": "uint256"
        },
        {
          "internalType": "uint256",
          "name": "expiry",
          "type": "uint256"
        },
        {
          "internalType": "uint8",
          "name": "v",
          "type": "uint8"
        },
        {
          "internalType": "bytes32",
          "name": "r",
          "type": "bytes32"
        },
        {
          "internalType": "bytes32",
          "name": "s",
          "type": "bytes32"
        }
      ],
      "name": "delegateBySig",
      "outputs": [],
      "stateMutability": "nonpayable",
      "type": "function"
    },
    {
      "inputs": [
        {
          "internalType": "address",
          "name": "account",
          "type": "address"
        }
      ],
      "name": "delegates",
      "outputs": [
        {
          "internalType": "address",
          "name": "",
          "type": "address"
        }
      ],
      "stateMutability": "view",
      "type": "function"
    },
    {
      "inputs": [],
      "name": "eip712Domain",
      "outputs": [
        {
          "internalType": "bytes1",
          "name": "fields",
          "type": "bytes1"
        },
        {
          "internalType": "string",
          "name": "name",
          "type": "string"
        },
        {
          "internalType": "string",
          "name": "version",
          "type": "string"
        },
        {
          "internalType": "uint256",
          "name": "chainId",
          "type": "uint256"
        },
        {
          "internalType": "address",
          "name": "verifyingContract",
          "type": "address"
        },
        {
          "internalType": "bytes32",
          "name": "salt",
          "type": "bytes32"
        },
        {
          "internalType": "uint256[]",
          "name": "extensions",
          "type": "uint256[]"
        }
      ],
      "stateMutability": "view",
      "type": "function"
    },
    {
      "inputs": [
        {
          "internalType": "uint256",
          "name": "timepoint",
          "type": "uint256"
        }
      ],
      "name": "getPastTotalSupply",
      "outputs": [
        {
          "internalType": "uint256",
          "name": "",
          "type": "uint256"
        }
      ],
      "stateMutability": "view",
      "type": "function"
    },
    {
      "inputs": [
        {
          "internalType": "address",
          "name": "account",
          "type": "address"
        },
        {
          "internalType": "uint256",
          "name": "timepoint",
          "type": "uint256"
        }
      ],
      "name": "getPastVotes",
      "outputs": [
        {
          "internalType": "uint256",
          "name": "",
          "type": "uint256"
        }
      ],
      "stateMutability": "view",
      "type": "function"
    },
    {
      "inputs": [
        {
          "internalType": "address",
          "name": "account",
          "type": "address"
        }
      ],
      "name": "getVotes",
      "outputs": [
        {
          "internalType": "uint256",
          "name": "",
          "type": "uint256"
        }
      ],
      "stateMutability": "view",
      "type": "function"
    },
    {
      "inputs": [
        {
          "internalType": "address",
          "name": "to",
          "type": "address"
        },
        {
          "internalType": "uint256",
          "name": "amount",
          "type": "uint256"
        }
      ],
      "name": "mint",
      "outputs": [],
      "stateMutability": "nonpayable",
      "type": "function"
    },
    {
      "inputs": [],
      "name": "name",
      "outputs": [
        {
          "internalType": "string",
          "name": "",
          "type": "string"
        }
      ],
      "stateMutability": "view",
      "type": "function"
    },
    {
      "inputs": [
        {
          "internalType": "address",
          "name": "owner",
          "type": "address"
        }
      ],
      "name": "nonces",
      "outputs": [
        {
          "internalType": "uint256",
          "name": "",
          "type": "uint256"
        }
      ],
      "stateMutability": "view",
      "type": "function"
    },
    {
      "inputs": [
        {
          "internalType": "address",
          "name": "account",
          "type": "address"
        }
      ],
      "name": "numCheckpoints",
      "outputs": [
        {
          "internalType": "uint32",
          "name": "",
          "type": "uint32"
        }
      ],
      "stateMutability": "view",
      "type": "function"
    },
    {
      "inputs": [
        {
          "internalType": "address",
          "name": "owner",
          "type": "address"
        },
        {
          "internalType": "address",
          "name": "spender",
          "type": "address"
        },
        {
          "internalType": "uint256",
          "name": "value",
          "type": "uint256"
        },
        {
          "internalType": "uint256",
          "name": "deadline",
          "type": "uint256"
        },
        {
          "internalType": "uint8",
          "name": "v",
          "type": "uint8"
        },
        {
          "internalType": "bytes32",
          "name": "r",
          "type": "bytes32"
        },
        {
          "internalType": "bytes32",
          "name": "s",
          "type": "bytes32"
        }
      ],
      "name": "permit",
      "outputs": [],
      "stateMutability": "nonpayable",
      "type": "function"
    },
    {
      "inputs": [],
      "name": "symbol",
      "outputs": [
        {
          "internalType": "string",
          "name": "",
          "type": "string"
        }
      ],
      "stateMutability": "view",
      "type": "function"
    },
    {
      "inputs": [],
      "name": "totalSupply",
      "outputs": [
        {
          "internalType": "uint256",
          "name": "",
          "type": "uint256"
        }
      ],
      "stateMutability": "view",
      "type": "function"
    },
    {
      "inputs": [
        {
          "internalType": "address",
          "name": "to",
          "type": "address"
        },
        {
          "internalType": "uint256",
          "name": "value",
          "type": "uint256"
        }
      ],
      "name": "transfer",
      "outputs": [
        {
          "internalType": "bool",
          "name": "",
          "type": "bool"
        }
      ],
      "stateMutability": "nonpayable",
      "type": "function"
    },
    {
      "inputs": [
        {
          "internalType": "address",
          "name": "from",
          "type": "address"
        },
        {
          "internalType": "address",
          "name": "to",
          "type": "address"
        },
        {
          "internalType": "uint256",
          "name": "value",
          "type": "uint256"
        }
      ],
      "name": "transferFrom",
      "outputs": [
        {
          "internalType": "bool",
          "name": "",
          "type": "bool"
        }
      ],
      "stateMutability": "nonpayable",
      "type": "function"
    }
  ],
  "bytecode": "0x6101606040523480156200001257600080fd5b50604051806040016040528060098152602001682227a9902a37b5b2b760b91b81525080604051806040016040528060018152602001603160f81b815250604051806040016040528060098152602001682227a9902a37b5b2b760b91b81525060405180604001604052806003815260200162444f5360e81b81525081600390816200009f91906200098b565b506004620000ae82826200098b565b50620000c09150839050600562000196565b61012052620000d181600662000196565b61014052815160208084019190912060e052815190820120610100524660a0526200015f60e05161010051604080517f8b73c3c69bb8fe3d512ecc4cf759cc79239f7b179b0ffacaa9a75d522b39400f60208201529081019290925260608201524660808201523060a082015260009060c00160405160208183030381529060405280519060200120905090565b60805250503060c0525062000190336200017c6012600a62000b6a565b6200018a906103e862000b7b565b620001cf565b62000c84565b6000602083511015620001b657620001ae8362000211565b9050620001c9565b81620001c384826200098b565b5060ff90505b92915050565b6001600160a01b038216620001ff5760405163ec442f0560e01b8152600060048201526024015b60405180910390fd5b6200020d6000838362000254565b5050565b600080829050601f815111156200023f578260405163305a27a960e01b8152600401620001f6919062000b95565b80516200024c8262000be6565b179392505050565b6200026183838362000266565b505050565b62000273838383620002d5565b6001600160a01b038316620002c85760006200028e60025490565b90506001600160d01b0380821115620002c557604051630e58ae9360e11b81526004810183905260248101829052604401620001f6565b50505b6200026183838362000408565b6001600160a01b03831662000304578060026000828254620002f8919062000c0b565b90915550620003789050565b6001600160a01b03831660009081526020819052604090205481811015620003595760405163391434e360e21b81526001600160a01b03851660048201526024810182905260448101839052606401620001f6565b6001600160a01b03841660009081526020819052604090209082900390555b6001600160a01b0382166200039657600280548290039055620003b5565b6001600160a01b03821660009081526020819052604090208054820190555b816001600160a01b0316836001600160a01b03167fddf252ad1be2c89b69c2b068fc378daa952ba7f163c4a11628f55a4df523b3ef83604051620003fb91815260200190565b60405180910390a3505050565b6001600160a01b0383166200043d576200043a600a620009e2620004a060201b176200043484620004b5565b620004ef565b50505b6001600160a01b0382166200046c5762000469600a620009ee6200052c60201b176200043484620004b5565b50505b6001600160a01b0383811660009081526008602052604080822054858416835291205462000261929182169116836200053a565b6000620004ae828462000c21565b9392505050565b60006001600160d01b03821115620004eb576040516306dfcc6560e41b815260d0600482015260248101839052604401620001f6565b5090565b6000806200051f62000500620006a1565b620005166200050f88620006b2565b868860201c565b87919062000701565b915091505b935093915050565b6000620004ae828462000c4b565b816001600160a01b0316836001600160a01b0316141580156200055d5750600081115b1562000261576001600160a01b0383161562000600576001600160a01b038316600090815260096020908152604082208291620005ab91906200052c901b620009ee176200043486620004b5565b6001600160d01b031691506001600160d01b03169150846001600160a01b031660008051602062002ed98339815191528383604051620005f5929190918252602082015260400190565b60405180910390a250505b6001600160a01b0382161562000261576001600160a01b038216600090815260096020908152604082208291620006489190620004a0901b620009e2176200043486620004b5565b6001600160d01b031691506001600160d01b03169150836001600160a01b031660008051602062002ed9833981519152838360405162000692929190918252602082015260400190565b60405180910390a25050505050565b6000620006ad62000711565b905090565b80546000908015620006f857620006de83620006d060018462000c6e565b600091825260209091200190565b54660100000000000090046001600160d01b0316620004ae565b60009392505050565b6000806200051f8585856200071e565b6000620006ad43620008b0565b825460009081908015620008515760006200074087620006d060018562000c6e565b60408051808201909152905465ffffffffffff80821680845266010000000000009092046001600160d01b0316602084015291925090871610156200079857604051632520601d60e01b815260040160405180910390fd5b805165ffffffffffff808816911603620007ec5784620007bf88620006d060018662000c6e565b80546001600160d01b039290921666010000000000000265ffffffffffff90921691909117905562000840565b6040805180820190915265ffffffffffff80881682526001600160d01b0380881660208085019182528b54600181018d5560008d815291909120945191519092166601000000000000029216919091179101555b602001519250839150620005249050565b50506040805180820190915265ffffffffffff80851682526001600160d01b0380851660208085019182528854600181018a5560008a815291822095519251909316660100000000000002919093161792019190915590508162000524565b600065ffffffffffff821115620004eb576040516306dfcc6560e41b81526030600482015260248101839052604401620001f6565b634e487b7160e01b600052604160045260246000fd5b600181811c908216806200091057607f821691505b6020821081036200093157634e487b7160e01b600052602260045260246000fd5b50919050565b601f82111562000261576000816000526020600020601f850160051c81016020861015620009625750805b601f850160051c820191505b8181101562000983578281556001016200096e565b505050505050565b81516001600160401b03811115620009a757620009a7620008e5565b620009bf81620009b88454620008fb565b8462000937565b602080601f831160018114620009f75760008415620009de5750858301515b600019600386901b1c1916600185901b17855562000983565b600085815260208120601f198616915b8281101562000a285788860151825594840194600190910190840162000a07565b508582101562000a475787850151600019600388901b60f8161c191681555b5050505050600190811b01905550565b634e487b7160e01b600052601160045260246000fd5b600181815b8085111562000aae57816000190482111562000a925762000a9262000a57565b8085161562000aa057918102915b93841c939080029062000a72565b509250929050565b60008262000ac757506001620001c9565b8162000ad657506000620001c9565b816001811462000aef576002811462000afa5762000b1a565b6001915050620001c9565b60ff84111562000b0e5762000b0e62000a57565b50506001821b620001c9565b5060208310610133831016604e8410600b841016171562000b3f575081810a620001c9565b62000b4b838362000a6d565b806000190482111562000b625762000b6262000a57565b029392505050565b6000620004ae60ff84168362000ab6565b8082028115828204841417620001c957620001c962000a57565b60006020808352835180602085015260005b8181101562000bc55785810183015185820160400152820162000ba7565b506000604082860101526040601f19601f8301168501019250505092915050565b80516020808301519190811015620009315760001960209190910360031b1b16919050565b80820180821115620001c957620001c962000a57565b6001600160d01b0381811683821601908082111562000c445762000c4462000a57565b5092915050565b6001600160d01b0382811682821603908082111562000c445762000c4462000a57565b81810381811115620001c957620001c962000a57565b60805160a05160c05160e0516101005161012051610140516121fa62000cdf6000396000610e7501526000610e4801526000610bf501526000610bcd01526000610b2801526000610b5201526000610b7c01526121fa6000f3fe608060405234801561001057600080fd5b50600436106101985760003560e01c806370a08231116100e35780639ab24eb01161008c578063d505accf11610066578063d505accf14610393578063dd62ed3e146103a6578063f1127ed8146103df57600080fd5b80639ab24eb01461035a578063a9059cbb1461036d578063c3cda5201461038057600080fd5b80638e539e8c116100bd5780638e539e8c1461032057806391ddadf41461033357806395d89b411461035257600080fd5b806370a08231146102c95780637ecebe00146102f257806384b0196e1461030557600080fd5b80633a46b1a811610145578063587cde1e1161011f578063587cde1e1461024a5780635c19a95c1461028e5780636fcfff45146102a157600080fd5b80633a46b1a81461021a57806340c10f191461022d5780634bf5d7e91461024257600080fd5b806323b872dd1161017657806323b872dd146101f0578063313ce567146102035780633644e5151461021257600080fd5b806306fdde031461019d578063095ea7b3146101bb57806318160ddd146101de575b600080fd5b6101a561041e565b6040516101b29190611cd5565b60405180910390f35b6101ce6101c9366004611d04565b6104b0565b60405190151581526020016101b2565b6002545b6040519081526020016101b2565b6101ce6101fe366004611d2e565b6104ca565b604051601281526020016101b2565b6101e26104ee565b6101e2610228366004611d04565b6104fd565b61024061023b366004611d04565b610583565b005b6101a56105a6565b610276610258366004611d6a565b6001600160a01b039081166000908152600860205260409020541690565b6040516001600160a01b0390911681526020016101b2565b61024061029c366004611d6a565b610637565b6102b46102af366004611d6a565b610642565b60405163ffffffff90911681526020016101b2565b6101e26102d7366004611d6a565b6001600160a01b031660009081526020819052604090205490565b6101e2610300366004611d6a565b61064d565b61030d610658565b6040516101b29796959493929190611d85565b6101e261032e366004611e3a565b6106ba565b61033b610724565b60405165ffffffffffff90911681526020016101b2565b6101a561072e565b6101e2610368366004611d6a565b61073d565b6101ce61037b366004611d04565b61076d565b61024061038e366004611e64565b61077b565b6102406103a1366004611ebc565b610851565b6101e26103b4366004611f26565b6001600160a01b03918216600090815260016020908152604080832093909416825291909152205490565b6103f26103ed366004611f59565b6109bd565b60408051825165ffffffffffff1681526020928301516001600160d01b031692810192909252016101b2565b60606003805461042d90611f99565b80601f016020809104026020016040519081016040528092919081815260200182805461045990611f99565b80156104a65780601f1061047b576101008083540402835291602001916104a6565b820191906000526020600020905b81548152906001019060200180831161048957829003601f168201915b5050505050905090565b6000336104be8185856109fa565b60019150505b92915050565b6000336104d8858285610a0c565b6104e3858585610aa3565b506001949350505050565b60006104f8610b1b565b905090565b600080610508610724565b90508065ffffffffffff16831061054857604051637669fc0f60e11b81526004810184905265ffffffffffff821660248201526044015b60405180910390fd5b61057261055484610c46565b6001600160a01b038616600090815260096020526040902090610c7d565b6001600160d01b0316949350505050565b6105a2826105936012600a6120cd565b61059d90846120dc565b610d36565b5050565b60606105b0610d6c565b65ffffffffffff166105c0610724565b65ffffffffffff16146105ff576040517f6ff0714000000000000000000000000000000000000000000000000000000000815260040160405180910390fd5b5060408051808201909152601d81527f6d6f64653d626c6f636b6e756d6265722666726f6d3d64656661756c74000000602082015290565b336105a28183610d77565b60006104c482610e01565b60006104c482610e23565b60006060806000806000606061066c610e41565b610674610e6e565b604080516000808252602082019092527f0f000000000000000000000000000000000000000000000000000000000000009b939a50919850469750309650945092509050565b6000806106c5610724565b90508065ffffffffffff16831061070057604051637669fc0f60e11b81526004810184905265ffffffffffff8216602482015260440161053f565b61071461070c84610c46565b600a90610c7d565b6001600160d01b03169392505050565b60006104f8610d6c565b60606004805461042d90611f99565b6001600160a01b038116600090815260096020526040812061075e90610e9b565b6001600160d01b031692915050565b6000336104be818585610aa3565b834211156107b8576040517f4683af0e0000000000000000000000000000000000000000000000000000000081526004810185905260240161053f565b604080517fe48329057bfd03d55e49b547132e39cffd9c1820ad7b9d4c5307691425d15adf60208201526001600160a01b0388169181019190915260608101869052608081018590526000906108329061082a9060a00160405160208183030381529060405280519060200120610ed7565b858585610f1f565b905061083e8187610f4d565b6108488188610d77565b50505050505050565b8342111561088e576040517f627913020000000000000000000000000000000000000000000000000000000081526004810185905260240161053f565b60007f6e71edae12b1b97f4d1f60370fef10105fa2faae0126114a169c64845d6126c98888886108db8c6001600160a01b0316600090815260076020526040902080546001810190915590565b6040805160208101969096526001600160a01b0394851690860152929091166060840152608083015260a082015260c0810186905260e001604051602081830303815290604052805190602001209050600061093682610ed7565b9050600061094682878787610f1f565b9050896001600160a01b0316816001600160a01b0316146109a6576040517f4b800e460000000000000000000000000000000000000000000000000000000081526001600160a01b0380831660048301528b16602482015260440161053f565b6109b18a8a8a6109fa565b50505050505050505050565b60408051808201909152600080825260208201526109db8383610fb9565b9392505050565b60006109db82846120f3565b60006109db828461211a565b610a078383836001610fef565b505050565b6001600160a01b038381166000908152600160209081526040808320938616835292905220546000198114610a9d5781811015610a8e576040517ffb8f41b20000000000000000000000000000000000000000000000000000000081526001600160a01b0384166004820152602481018290526044810183905260640161053f565b610a9d84848484036000610fef565b50505050565b6001600160a01b038316610ae6576040517f96c6fd1e0000000000000000000000000000000000000000000000000000000081526000600482015260240161053f565b6001600160a01b038216610b105760405163ec442f0560e01b81526000600482015260240161053f565b610a078383836110f6565b6000306001600160a01b037f000000000000000000000000000000000000000000000000000000000000000016148015610b7457507f000000000000000000000000000000000000000000000000000000000000000046145b15610b9e57507f000000000000000000000000000000000000000000000000000000000000000090565b6104f8604080517f8b73c3c69bb8fe3d512ecc4cf759cc79239f7b179b0ffacaa9a75d522b39400f60208201527f0000000000000000000000000000000000000000000000000000000000000000918101919091527f000000000000000000000000000000000000000000000000000000000000000060608201524660808201523060a082015260009060c00160405160208183030381529060405280519060200120905090565b600065ffffffffffff821115610c79576040516306dfcc6560e41b8152603060048201526024810183905260440161053f565b5090565b815460009081816005811115610cdc576000610c9884611101565b610ca2908561213a565b60008881526020902090915081015465ffffffffffff9081169087161015610ccc57809150610cda565b610cd781600161214d565b92505b505b6000610cea878785856111e9565b90508015610d2857610d0f87610d0160018461213a565b600091825260209091200190565b54660100000000000090046001600160d01b0316610d2b565b60005b979650505050505050565b6001600160a01b038216610d605760405163ec442f0560e01b81526000600482015260240161053f565b6105a2600083836110f6565b60006104f843610c46565b6001600160a01b0382811660008181526008602052604080822080548686167fffffffffffffffffffffffff0000000000000000000000000000000000000000821681179092559151919094169392849290917f3134e8a2e6d97e929a7e54011ea5485d7d196dd5f0ba4d4ef95803e8e3fc257f9190a4610a078183610dfc8661124b565b611269565b6001600160a01b0381166000908152600960205260408120546104c4906113d5565b6001600160a01b0381166000908152600760205260408120546104c4565b60606104f87f00000000000000000000000000000000000000000000000000000000000000006005611406565b60606104f87f00000000000000000000000000000000000000000000000000000000000000006006611406565b80546000908015610ece57610eb583610d0160018461213a565b54660100000000000090046001600160d01b03166109db565b60009392505050565b60006104c4610ee4610b1b565b836040517f19010000000000000000000000000000000000000000000000000000000000008152600281019290925260228201526042902090565b600080600080610f31888888886114b1565b925092509250610f418282611580565b50909695505050505050565b6001600160a01b0382166000908152600760205260409020805460018101909155818114610a07576040517f752d88c00000000000000000000000000000000000000000000000000000000081526001600160a01b03841660048201526024810182905260440161053f565b60408051808201909152600080825260208201526001600160a01b03831660009081526009602052604090206109db9083611684565b6001600160a01b038416611032576040517fe602df050000000000000000000000000000000000000000000000000000000081526000600482015260240161053f565b6001600160a01b038316611075576040517f94280d620000000000000000000000000000000000000000000000000000000081526000600482015260240161053f565b6001600160a01b0380851660009081526001602090815260408083209387168352929052208290558015610a9d57826001600160a01b0316846001600160a01b03167f8c5be1e5ebec7d5bd14f71427d1e84f3dd0314c0f7b2291e5b200ac8c7c3b925846040516110e891815260200190565b60405180910390a350505050565b610a078383836116f7565b60008160000361111357506000919050565b6000600161112084611777565b901c6001901b9050600181848161113957611139612160565b048201901c9050600181848161115157611151612160565b048201901c9050600181848161116957611169612160565b048201901c9050600181848161118157611181612160565b048201901c9050600181848161119957611199612160565b048201901c905060018184816111b1576111b1612160565b048201901c905060018184816111c9576111c9612160565b048201901c90506109db818285816111e3576111e3612160565b0461180b565b60005b818310156112435760006112008484611821565b60008781526020902090915065ffffffffffff86169082015465ffffffffffff16111561122f5780925061123d565b61123a81600161214d565b93505b506111ec565b509392505050565b6001600160a01b0381166000908152602081905260408120546104c4565b816001600160a01b0316836001600160a01b03161415801561128b5750600081115b15610a07576001600160a01b03831615611333576001600160a01b038316600090815260096020526040812081906112ce906109ee6112c98661183c565b611870565b6001600160d01b031691506001600160d01b03169150846001600160a01b03167fdec2bacdd2f05b59de34da9b523dff8be42e5e38e818c82fdb0bae774387a7248383604051611328929190918252602082015260400190565b60405180910390a250505b6001600160a01b03821615610a07576001600160a01b0382166000908152600960205260408120819061136c906109e26112c98661183c565b6001600160d01b031691506001600160d01b03169150836001600160a01b03167fdec2bacdd2f05b59de34da9b523dff8be42e5e38e818c82fdb0bae774387a72483836040516113c6929190918252602082015260400190565b60405180910390a25050505050565b600063ffffffff821115610c79576040516306dfcc6560e41b8152602060048201526024810183905260440161053f565b606060ff831461142057611419836118a9565b90506104c4565b81805461142c90611f99565b80601f016020809104026020016040519081016040528092919081815260200182805461145890611f99565b80156114a55780601f1061147a576101008083540402835291602001916114a5565b820191906000526020600020905b81548152906001019060200180831161148857829003601f168201915b505050505090506104c4565b600080807f7fffffffffffffffffffffffffffffff5d576e7357a4501ddfe92f46681b20a08411156114ec5750600091506003905082611576565b604080516000808252602082018084528a905260ff891692820192909252606081018790526080810186905260019060a0016020604051602081039080840390855afa158015611540573d6000803e3d6000fd5b5050604051601f1901519150506001600160a01b03811661156c57506000925060019150829050611576565b9250600091508190505b9450945094915050565b600082600381111561159457611594612176565b0361159d575050565b60018260038111156115b1576115b1612176565b036115e8576040517ff645eedf00000000000000000000000000000000000000000000000000000000815260040160405180910390fd5b60028260038111156115fc576115fc612176565b03611636576040517ffce698f70000000000000000000000000000000000000000000000000000000081526004810182905260240161053f565b600382600381111561164a5761164a612176565b036105a2576040517fd78bce0c0000000000000000000000000000000000000000000000000000000081526004810182905260240161053f565b6040805180820190915260008082526020820152826000018263ffffffff16815481106116b3576116b361218c565b60009182526020918290206040805180820190915291015465ffffffffffff81168252660100000000000090046001600160d01b0316918101919091529392505050565b6117028383836118e8565b6001600160a01b03831661176c57600061171b60025490565b90506001600160d01b0380821115611769576040517f1cb15d26000000000000000000000000000000000000000000000000000000008152600481018390526024810182905260440161053f565b50505b610a07838383611a2b565b600080608083901c1561178c57608092831c92015b604083901c1561179e57604092831c92015b602083901c156117b057602092831c92015b601083901c156117c257601092831c92015b600883901c156117d457600892831c92015b600483901c156117e657600492831c92015b600283901c156117f857600292831c92015b600183901c156104c45760010192915050565b600081831061181a57816109db565b5090919050565b600061183060028484186121a2565b6109db9084841661214d565b60006001600160d01b03821115610c79576040516306dfcc6560e41b815260d060048201526024810183905260440161053f565b60008061189c61187e610724565b61189461188a88610e9b565b868863ffffffff16565b879190611aa1565b915091505b935093915050565b606060006118b683611aaf565b604080516020808252818301909252919250600091906020820181803683375050509182525060208101929092525090565b6001600160a01b038316611913578060026000828254611908919061214d565b9091555061199e9050565b6001600160a01b0383166000908152602081905260409020548181101561197f576040517fe450d38c0000000000000000000000000000000000000000000000000000000081526001600160a01b0385166004820152602481018290526044810183905260640161053f565b6001600160a01b03841660009081526020819052604090209082900390555b6001600160a01b0382166119ba576002805482900390556119d9565b6001600160a01b03821660009081526020819052604090208054820190555b816001600160a01b0316836001600160a01b03167fddf252ad1be2c89b69c2b068fc378daa952ba7f163c4a11628f55a4df523b3ef83604051611a1e91815260200190565b60405180910390a3505050565b6001600160a01b038316611a4d57611a4a600a6109e26112c98461183c565b50505b6001600160a01b038216611a6f57611a6c600a6109ee6112c98461183c565b50505b6001600160a01b03838116600090815260086020526040808220548584168352912054610a0792918216911683611269565b60008061189c858585611af0565b600060ff8216601f8111156104c4576040517fb3512b0c00000000000000000000000000000000000000000000000000000000815260040160405180910390fd5b825460009081908015611c31576000611b0e87610d0160018561213a565b60408051808201909152905465ffffffffffff80821680845266010000000000009092046001600160d01b031660208401529192509087161015611b7e576040517f2520601d00000000000000000000000000000000000000000000000000000000815260040160405180910390fd5b805165ffffffffffff808816911603611bcd5784611ba188610d0160018661213a565b80546001600160d01b039290921666010000000000000265ffffffffffff909216919091179055611c21565b6040805180820190915265ffffffffffff80881682526001600160d01b0380881660208085019182528b54600181018d5560008d815291909120945191519092166601000000000000029216919091179101555b6020015192508391506118a19050565b50506040805180820190915265ffffffffffff80851682526001600160d01b0380851660208085019182528854600181018a5560008a81529182209551925190931666010000000000000291909316179201919091559050816118a1565b6000815180845260005b81811015611cb557602081850181015186830182015201611c99565b506000602082860101526020601f19601f83011685010191505092915050565b6020815260006109db6020830184611c8f565b80356001600160a01b0381168114611cff57600080fd5b919050565b60008060408385031215611d1757600080fd5b611d2083611ce8565b946020939093013593505050565b600080600060608486031215611d4357600080fd5b611d4c84611ce8565b9250611d5a60208501611ce8565b9150604084013590509250925092565b600060208284031215611d7c57600080fd5b6109db82611ce8565b7fff00000000000000000000000000000000000000000000000000000000000000881681526000602060e06020840152611dc260e084018a611c8f565b8381036040850152611dd4818a611c8f565b606085018990526001600160a01b038816608086015260a0850187905284810360c08601528551808252602080880193509091019060005b81811015611e2857835183529284019291840191600101611e0c565b50909c9b505050505050505050505050565b600060208284031215611e4c57600080fd5b5035919050565b803560ff81168114611cff57600080fd5b60008060008060008060c08789031215611e7d57600080fd5b611e8687611ce8565b95506020870135945060408701359350611ea260608801611e53565b92506080870135915060a087013590509295509295509295565b600080600080600080600060e0888a031215611ed757600080fd5b611ee088611ce8565b9650611eee60208901611ce8565b95506040880135945060608801359350611f0a60808901611e53565b925060a0880135915060c0880135905092959891949750929550565b60008060408385031215611f3957600080fd5b611f4283611ce8565b9150611f5060208401611ce8565b90509250929050565b60008060408385031215611f6c57600080fd5b611f7583611ce8565b9150602083013563ffffffff81168114611f8e57600080fd5b809150509250929050565b600181811c90821680611fad57607f821691505b602082108103611fcd57634e487b7160e01b600052602260045260246000fd5b50919050565b634e487b7160e01b600052601160045260246000fd5b600181815b8085111561202457816000190482111561200a5761200a611fd3565b8085161561201757918102915b93841c9390800290611fee565b509250929050565b60008261203b575060016104c4565b81612048575060006104c4565b816001811461205e576002811461206857612084565b60019150506104c4565b60ff84111561207957612079611fd3565b50506001821b6104c4565b5060208310610133831016604e8410600b84101617156120a7575081810a6104c4565b6120b18383611fe9565b80600019048211156120c5576120c5611fd3565b029392505050565b60006109db60ff84168361202c565b80820281158282048414176104c4576104c4611fd3565b6001600160d01b0381811683821601908082111561211357612113611fd3565b5092915050565b6001600160d01b0382811682821603908082111561211357612113611fd3565b818103818111156104c4576104c4611fd3565b808201808211156104c4576104c4611fd3565b634e487b7160e01b600052601260045260246000fd5b634e487b7160e01b600052602160045260246000fd5b634e487b7160e01b600052603260045260246000fd5b6000826121bf57634e487b7160e01b600052601260045260246000fd5b50049056fea264697066735822122065b77f88dbc3f1e904cd3c482935fa40ac6c4926bc91b5032264663d42bcb3a364736f6c63430008180033dec2bacdd2f05b59de34da9b523dff8be42e5e38e818c82fdb0bae774387a724",
  "linkReferences": {},
  "deployedLinkReferences": {}
}