{
  "_format": "hh-sol-artifact-1",
  "contractName": "Treasury",
  "sourceName": "contracts/Treasury.sol",
  "abi": [
    {
      "inputs": [],
      "stateMutability": "payable",
      "type": "constructor"
    },
    {
      "inputs": [
        {
          "internalType": "address",
          "name": "owner",
          "type": "address"
        }
      ],
      "name": "OwnableInvalidOwner",
      "type": "error"
    },
    {
      "inputs": [
        {
          "internalType": "address",
          "name": "account",
          "type": "address"
        }
      ],
      "name": "OwnableUnauthorizedAccount",
      "type": "error"
    },
    {
      "anonymous": false,
      "inputs": [
        {
          "indexed": true,
          "internalType": "address",
          "name": "previousOwner",
          "type": "address"
        },
        {
          "indexed": true,
          "internalType": "address",
          "name": "newOwner",
          "type": "address"
        }
      ],
      "name": "OwnershipTransferred",
      "type": "event"
    },
    {
      "inputs": [],
      "name": "addFunds",
      "outputs": [],
      "stateMutability": "payable",
      "type": "function"
    },
    {
      "inputs": [],
      "name": "owner",
      "outputs": [
        {
          "internalType": "address",
          "name": "",
          "type": "address"
        }
      ],
      "stateMutability": "view",
      "type": "function"
    },
    {
      "inputs": [
        {
          "internalType": "address",
          "name": "_payee",
          "type": "address"
        },
        {
          "internalType": "uint256",
          "name": "amount",
          "type": "uint256"
        }
      ],
      "name": "releaseFunds",
      "outputs": [],
      "stateMutability": "nonpayable",
      "type": "function"
    },
    {
      "inputs": [],
      "name": "renounceOwnership",
      "outputs": [],
      "stateMutability": "nonpayable",
      "type": "function"
    },
    {
      "inputs": [],
      "name": "totalFunds",
      "outputs": [
        {
          "internalType": "uint256",
          "name": "",
          "type": "uint256"
        }
      ],
      "stateMutability": "view",
      "type": "function"
    },
    {
      "inputs": [
        {
          "internalType": "address",
          "name": "newOwner",
          "type": "address"
        }
      ],
      "name": "transferOwnership",
      "outputs": [],
      "stateMutability": "nonpayable",
      "type": "function"
    }
  ],
  "bytecode": "0x6080604052338061002a57604051631e4fbdf760e01b81526000600482015260240160405180910390fd5b6100338161003d565b503460015561008d565b600080546001600160a01b038381166001600160a01b0319831681178455604051919092169283917f8be0079c531659141344cd1fd0a4f28419497f9722a3daafe3b4186f6b6457e09190a35050565b6103728061009c6000396000f3fe6080604052600436106100655760003560e01c8063a26759cb11610043578063a26759cb146100d2578063d6e982e5146100da578063f2fde38b146100fa57600080fd5b8063715018a61461006a5780638da5cb5b14610081578063968ed600146100ae575b600080fd5b34801561007657600080fd5b5061007f61011a565b005b34801561008d57600080fd5b506000546040516001600160a01b0390911681526020015b60405180910390f35b3480156100ba57600080fd5b506100c460015481565b6040519081526020016100a5565b61007f61012e565b3480156100e657600080fd5b5061007f6100f53660046102b0565b610147565b34801561010657600080fd5b5061007f6101153660046102da565b61018a565b6101226101e6565b61012c600061022c565b565b346001600082825461014091906102fc565b9091555050565b61014f6101e6565b6040516001600160a01b0383169082156108fc029083906000818181858888f19350505050158015610185573d6000803e3d6000fd5b505050565b6101926101e6565b6001600160a01b0381166101da576040517f1e4fbdf7000000000000000000000000000000000000000000000000000000008152600060048201526024015b60405180910390fd5b6101e38161022c565b50565b6000546001600160a01b0316331461012c576040517f118cdaa70000000000000000000000000000000000000000000000000000000081523360048201526024016101d1565b600080546001600160a01b038381167fffffffffffffffffffffffff0000000000000000000000000000000000000000831681178455604051919092169283917f8be0079c531659141344cd1fd0a4f28419497f9722a3daafe3b4186f6b6457e09190a35050565b80356001600160a01b03811681146102ab57600080fd5b919050565b600080604083850312156102c357600080fd5b6102cc83610294565b946020939093013593505050565b6000602082840312156102ec57600080fd5b6102f582610294565b9392505050565b80820180821115610336577f4e487b7100000000000000000000000000000000000000000000000000000000600052601160045260246000fd5b9291505056fea2646970667358221220d9a62c5a5c323460137699a259aec6fa0e4e9db26e89982700966b2df8e47e9e64736f6c63430008180033",
  "linkReferences": {},
  "deployedLinkReferences": {}
}