{"contracts/DOSToken.sol":{"DOSToken":{"abi":[{"inputs":[],"stateMutability":"nonpayable","type":"constructor"},{"inputs":[],"name":"CheckpointUnorderedInsertion","type":"error"},{"inputs":[],"name":"ECDSAInvalidSignature","type":"error"},{"inputs":[{"internalType":"uint256","name":"length","type":"uint256"}],"name":"ECDSAInvalidSignatureLength","type":"error"},{"inputs":[{"internalType":"bytes32","name":"s","type":"bytes32"}],"name":"ECDSAInvalidSignatureS","type":"error"},{"inputs":[{"internalType":"uint256","name":"increasedSupply","type":"uint256"},{"internalType":"uint256","name":"cap","type":"uint256"}],"name":"ERC20ExceededSafeSupply","type":"error"},{"inputs":[{"internalType":"address","name":"spender","type":"address"},{"internalType":"uint256","name":"allowance","type":"uint256"},{"internalType":"uint256","name":"needed","type":"uint256"}],"name":"ERC20InsufficientAllowance","type":"error"},{"inputs":[{"internalType":"address","name":"sender","type":"address"},{"internalType":"uint256","name":"balance","type":"uint256"},{"internalType":"uint256","name":"needed","type":"uint256"}],"name":"ERC20InsufficientBalance","type":"error"},{"inputs":[{"internalType":"address","name":"approver","type":"address"}],"name":"ERC20InvalidApprover","type":"error"},{"inputs":[{"internalType":"address","name":"receiver","type":"address"}],"name":"ERC20InvalidReceiver","type":"error"},{"inputs":[{"internalType":"address","name":"sender","type":"address"}],"name":"ERC20InvalidSender","type":"error"},{"inputs":[{"internalType":"address","name":"spender","type":"address"}],"name":"ERC20InvalidSpender","type":"error"},{"inputs":[{"internalType":"uint256","name":"deadline","type":"uint256"}],"name":"ERC2612ExpiredSignature","type":"error"},{"inputs":[{"internalType":"address","name":"signer","type":"address"},{"internalType":"address","name":"owner","type":"address"}],"name":"ERC2612InvalidSigner","type":"error"},{"inputs":[{"internalType":"uint256","name":"timepoint","type":"uint256"},{"internalType":"uint48","name":"clock","type":"uint48"}],"name":"ERC5805FutureLookup","type":"error"},{"inputs":[],"name":"ERC6372InconsistentClock","type":"error"},{"inputs":[{"internalType":"address","name":"account","type":"address"},{"internalType":"uint256","name":"currentNonce","type":"uint256"}],"name":"InvalidAccountNonce","type":"error"},{"inputs":[],"name":"InvalidShortString","type":"error"},{"inputs":[{"internalType":"uint8","name":"bits","type":"uint8"},{"internalType":"uint256","name":"value","type":"uint256"}],"name":"SafeCastOverflowedUintDowncast","type":"error"},{"inputs":[{"internalType":"string","name":"str","type":"string"}],"name":"StringTooLong","type":"error"},{"inputs":[{"internalType":"uint256","name":"expiry","type":"uint256"}],"name":"VotesExpiredSignature","type":"error"},{"anonymous":false,"inputs":[{"indexed":true,"internalType":"address","name":"owner","type":"address"},{"indexed":true,"internalType":"address","name":"spender","type":"address"},{"indexed":false,"internalType":"uint256","name":"value","type":"uint256"}],"name":"Approval","type":"event"},{"anonymous":false,"inputs":[{"indexed":true,"internalType":"address","name":"delegator","type":"address"},{"indexed":true,"internalType":"address","name":"fromDelegate","type":"address"},{"indexed":true,"internalType":"address","name":"toDelegate","type":"address"}],"name":"DelegateChanged","type":"event"},{"anonymous":false,"inputs":[{"indexed":true,"internalType":"address","name":"delegate","type":"address"},{"indexed":false,"internalType":"uint256","name":"previousVotes","type":"uint256"},{"indexed":false,"internalType":"uint256","name":"newVotes","type":"uint256"}],"name":"DelegateVotesChanged","type":"event"},{"anonymous":false,"inputs":[],"name":"EIP712DomainChanged","type":"event"},{"anonymous":false,"inputs":[{"indexed":true,"internalType":"address","name":"from","type":"address"},{"indexed":true,"internalType":"address","name":"to","type":"address"},{"indexed":false,"internalType":"uint256","name":"value","type":"uint256"}],"name":"Transfer","type":"event"},{"inputs":[],"name":"CLOCK_MODE","outputs":[{"internalType":"string","name":"","type":"string"}],"stateMutability":"view","type":"function"},{"inputs":[],"name":"DOMAIN_SEPARATOR","outputs":[{"internalType":"bytes32","name":"","type":"bytes32"}],"stateMutability":"view","type":"function"},{"inputs":[{"internalType":"address","name":"owner","type":"address"},{"internalType":"address","name":"spender","type":"address"}],"name":"allowance","outputs":[{"internalType":"uint256","name":"","type":"uint256"}],"stateMutability":"view","type":"function"},{"inputs":[{"internalType":"address","name":"spender","type":"address"},{"internalType":"uint256","name":"value","type":"uint256"}],"name":"approve","outputs":[{"internalType":"bool","name":"","type":"bool"}],"stateMutability":"nonpayable","type":"function"},{"inputs":[{"internalType":"address","name":"account","type":"address"}],"name":"balanceOf","outputs":[{"internalType":"uint256","name":"","type":"uint256"}],"stateMutability":"view","type":"function"},{"inputs":[{"internalType":"address","name":"account","type":"address"},{"internalType":"uint32","name":"pos","type":"uint32"}],"name":"checkpoints","outputs":[{"components":[{"internalType":"uint48","name":"_key","type":"uint48"},{"internalType":"uint208","name":"_value","type":"uint208"}],"internalType":"struct Checkpoints.Checkpoint208","name":"","type":"tuple"}],"stateMutability":"view","type":"function"},{"inputs":[],"name":"clock","outputs":[{"internalType":"uint48","name":"","type":"uint48"}],"stateMutability":"view","type":"function"},{"inputs":[],"name":"decimals","outputs":[{"internalType":"uint8","name":"","type":"uint8"}],"stateMutability":"view","type":"function"},{"inputs":[{"internalType":"address","name":"delegatee","type":"address"}],"name":"delegate","outputs":[],"stateMutability":"nonpayable","type":"function"},{"inputs":[{"internalType":"address","name":"delegatee","type":"address"},{"internalType":"uint256","name":"nonce","type":"uint256"},{"internalType":"uint256","name":"expiry","type":"uint256"},{"internalType":"uint8","name":"v","type":"uint8"},{"internalType":"bytes32","name":"r","type":"bytes32"},{"internalType":"bytes32","name":"s","type":"bytes32"}],"name":"delegateBySig","outputs":[],"stateMutability":"nonpayable","type":"function"},{"inputs":[{"internalType":"address","name":"account","type":"address"}],"name":"delegates","outputs":[{"internalType":"address","name":"","type":"address"}],"stateMutability":"view","type":"function"},{"inputs":[],"name":"eip712Domain","outputs":[{"internalType":"bytes1","name":"fields","type":"bytes1"},{"internalType":"string","name":"name","type":"string"},{"internalType":"string","name":"version","type":"string"},{"internalType":"uint256","name":"chainId","type":"uint256"},{"internalType":"address","name":"verifyingContract","type":"address"},{"internalType":"bytes32","name":"salt","type":"bytes32"},{"internalType":"uint256[]","name":"extensions","type":"uint256[]"}],"stateMutability":"view","type":"function"},{"inputs":[{"internalType":"uint256","name":"timepoint","type":"uint256"}],"name":"getPastTotalSupply","outputs":[{"internalType":"uint256","name":"","type":"uint256"}],"stateMutability":"view","type":"function"},{"inputs":[{"internalType":"address","name":"account","type":"address"},{"internalType":"uint256","name":"timepoint","type":"uint256"}],"name":"getPastVotes","outputs":[{"internalType":"uint256","name":"","type":"uint256"}],"stateMutability":"view","type":"function"},{"inputs":[{"internalType":"address","name":"account","type":"address"}],"name":"getVotes","outputs":[{"internalType":"uint256","name":"","type":"uint256"}],"stateMutability":"view","type":"function"},{"inputs":[{"internalType":"address","name":"to","type":"address"},{"internalType":"uint256","name":"amount","type":"uint256"}],"name":"mint","outputs":[],"stateMutability":"nonpayable","type":"function"},{"inputs":[],"name":"name","outputs":[{"internalType":"string","name":"","type":"string"}],"stateMutability":"view","type":"function"},{"inputs":[{"internalType":"address","name":"owner","type":"address"}],"name":"nonces","outputs":[{"internalType":"uint256","name":"","type":"uint256"}],"stateMutability":"view","type":"function"},{"inputs":[{"internalType":"address","name":"account","type":"address"}],"name":"numCheckpoints","outputs":[{"internalType":"uint32","name":"","type":"uint32"}],"stateMutability":"view","type":"function"},{"inputs":[{"internalType":"address","name":"owner","type":"address"},{"internalType":"address","name":"spender","type":"address"},{"internalType":"uint256","name":"value","type":"uint256"},{"internalType":"uint256","name":"deadline","type":"uint256"},{"internalType":"uint8","name":"v","type":"uint8"},{"internalType":"bytes32","name":"r","type":"bytes32"},{"internalType":"bytes32","name":"s","type":"bytes32"}],"name":"permit","outputs":[],"stateMutability":"nonpayable","type":"function"},{"inputs":[],"name":"symbol","outputs":[{"internalType":"string","name":"","type":"string"}],"stateMutability":"view","type":"function"},{"inputs":[],"name":"totalSupply","outputs":[{"internalType":"uint256","name":"","type":"uint256"}],"stateMutability":"view","type":"function"},{"inputs":[{"internalType":"address","name":"to","type":"address"},{"internalType":"uint256","name":"value","type":"uint256"}],"name":"transfer","outputs":[{"internalType":"bool","name":"","type":"bool"}],"stateMutability":"nonpayable","type":"function"},{"inputs":[{"internalType":"address","name":"from","type":"address"},{"internalType":"address","name":"to","type":"address"},{"internalType":"uint256","name":"value","type":"uint256"}],"name":"transferFrom","outputs":[{"internalType":"bool","name":"","type":"bool"}],"stateMutability":"nonpayable","type":"function"}],"evm":{"bytecode":{"linkReferences":{},"object":"6101606040523480156200001257600080fd5b50604051806040016040528060098152602001682227a9902a37b5b2b760b91b81525080604051806040016040528060018152602001603160f81b815250604051806040016040528060098152602001682227a9902a37b5b2b760b91b81525060405180604001604052806003815260200162444f5360e81b81525081600390816200009f91906200098b565b506004620000ae82826200098b565b50620000c09150839050600562000196565b61012052620000d181600662000196565b61014052815160208084019190912060e052815190820120610100524660a0526200015f60e05161010051604080517f8b73c3c69bb8fe3d512ecc4cf759cc79239f7b179b0ffacaa9a75d522b39400f60208201529081019290925260608201524660808201523060a082015260009060c00160405160208183030381529060405280519060200120905090565b60805250503060c0525062000190336200017c6012600a62000b6a565b6200018a906103e862000b7b565b620001cf565b62000c84565b6000602083511015620001b657620001ae8362000211565b9050620001c9565b81620001c384826200098b565b5060ff90505b92915050565b6001600160a01b038216620001ff5760405163ec442f0560e01b8152600060048201526024015b60405180910390fd5b6200020d6000838362000254565b5050565b600080829050601f815111156200023f578260405163305a27a960e01b8152600401620001f6919062000b95565b80516200024c8262000be6565b179392505050565b6200026183838362000266565b505050565b62000273838383620002d5565b6001600160a01b038316620002c85760006200028e60025490565b90506001600160d01b0380821115620002c557604051630e58ae9360e11b81526004810183905260248101829052604401620001f6565b50505b6200026183838362000408565b6001600160a01b03831662000304578060026000828254620002f8919062000c0b565b90915550620003789050565b6001600160a01b03831660009081526020819052604090205481811015620003595760405163391434e360e21b81526001600160a01b03851660048201526024810182905260448101839052606401620001f6565b6001600160a01b03841660009081526020819052604090209082900390555b6001600160a01b0382166200039657600280548290039055620003b5565b6001600160a01b03821660009081526020819052604090208054820190555b816001600160a01b0316836001600160a01b03167fddf252ad1be2c89b69c2b068fc378daa952ba7f163c4a11628f55a4df523b3ef83604051620003fb91815260200190565b60405180910390a3505050565b6001600160a01b0383166200043d576200043a600a620009e2620004a060201b176200043484620004b5565b620004ef565b50505b6001600160a01b0382166200046c5762000469600a620009ee6200052c60201b176200043484620004b5565b50505b6001600160a01b0383811660009081526008602052604080822054858416835291205462000261929182169116836200053a565b6000620004ae828462000c21565b9392505050565b60006001600160d01b03821115620004eb576040516306dfcc6560e41b815260d0600482015260248101839052604401620001f6565b5090565b6000806200051f62000500620006a1565b620005166200050f88620006b2565b868860201c565b87919062000701565b915091505b935093915050565b6000620004ae828462000c4b565b816001600160a01b0316836001600160a01b0316141580156200055d5750600081115b1562000261576001600160a01b0383161562000600576001600160a01b038316600090815260096020908152604082208291620005ab91906200052c901b620009ee176200043486620004b5565b6001600160d01b031691506001600160d01b03169150846001600160a01b031660008051602062002ed98339815191528383604051620005f5929190918252602082015260400190565b60405180910390a250505b6001600160a01b0382161562000261576001600160a01b038216600090815260096020908152604082208291620006489190620004a0901b620009e2176200043486620004b5565b6001600160d01b031691506001600160d01b03169150836001600160a01b031660008051602062002ed9833981519152838360405162000692929190918252602082015260400190565b60405180910390a25050505050565b6000620006ad62000711565b905090565b80546000908015620006f857620006de83620006d060018462000c6e565b600091825260209091200190565b54660100000000000090046001600160d01b0316620004ae565b60009392505050565b6000806200051f8585856200071e565b6000620006ad43620008b0565b825460009081908015620008515760006200074087620006d060018562000c6e565b60408051808201909152905465ffffffffffff80821680845266010000000000009092046001600160d01b0316602084015291925090871610156200079857604051632520601d60e01b815260040160405180910390fd5b805165ffffffffffff808816911603620007ec5784620007bf88620006d060018662000c6e565b80546001600160d01b039290921666010000000000000265ffffffffffff90921691909117905562000840565b6040805180820190915265ffffffffffff80881682526001600160d01b0380881660208085019182528b54600181018d5560008d815291909120945191519092166601000000000000029216919091179101555b602001519250839150620005249050565b50506040805180820190915265ffffffffffff80851682526001600160d01b0380851660208085019182528854600181018a5560008a815291822095519251909316660100000000000002919093161792019190915590508162000524565b600065ffffffffffff821115620004eb576040516306dfcc6560e41b81526030600482015260248101839052604401620001f6565b634e487b7160e01b600052604160045260246000fd5b600181811c908216806200091057607f821691505b6020821081036200093157634e487b7160e01b600052602260045260246000fd5b50919050565b601f82111562000261576000816000526020600020601f850160051c81016020861015620009625750805b601f850160051c820191505b8181101562000983578281556001016200096e565b505050505050565b81516001600160401b03811115620009a757620009a7620008e5565b620009bf81620009b88454620008fb565b8462000937565b602080601f831160018114620009f75760008415620009de5750858301515b600019600386901b1c1916600185901b17855562000983565b600085815260208120601f198616915b8281101562000a285788860151825594840194600190910190840162000a07565b508582101562000a475787850151600019600388901b60f8161c191681555b5050505050600190811b01905550565b634e487b7160e01b600052601160045260246000fd5b600181815b8085111562000aae57816000190482111562000a925762000a9262000a57565b8085161562000aa057918102915b93841c939080029062000a72565b509250929050565b60008262000ac757506001620001c9565b8162000ad657506000620001c9565b816001811462000aef576002811462000afa5762000b1a565b6001915050620001c9565b60ff84111562000b0e5762000b0e62000a57565b50506001821b620001c9565b5060208310610133831016604e8410600b841016171562000b3f575081810a620001c9565b62000b4b838362000a6d565b806000190482111562000b625762000b6262000a57565b029392505050565b6000620004ae60ff84168362000ab6565b8082028115828204841417620001c957620001c962000a57565b60006020808352835180602085015260005b8181101562000bc55785810183015185820160400152820162000ba7565b506000604082860101526040601f19601f8301168501019250505092915050565b80516020808301519190811015620009315760001960209190910360031b1b16919050565b80820180821115620001c957620001c962000a57565b6001600160d01b0381811683821601908082111562000c445762000c4462000a57565b5092915050565b6001600160d01b0382811682821603908082111562000c445762000c4462000a57565b81810381811115620001c957620001c962000a57565b60805160a05160c05160e0516101005161012051610140516121fa62000cdf6000396000610e7501526000610e4801526000610bf501526000610bcd01526000610b2801526000610b5201526000610b7c01526121fa6000f3fe608060405234801561001057600080fd5b50600436106101985760003560e01c806370a08231116100e35780639ab24eb01161008c578063d505accf11610066578063d505accf14610393578063dd62ed3e146103a6578063f1127ed8146103df57600080fd5b80639ab24eb01461035a578063a9059cbb1461036d578063c3cda5201461038057600080fd5b80638e539e8c116100bd5780638e539e8c1461032057806391ddadf41461033357806395d89b411461035257600080fd5b806370a08231146102c95780637ecebe00146102f257806384b0196e1461030557600080fd5b80633a46b1a811610145578063587cde1e1161011f578063587cde1e1461024a5780635c19a95c1461028e5780636fcfff45146102a157600080fd5b80633a46b1a81461021a57806340c10f191461022d5780634bf5d7e91461024257600080fd5b806323b872dd1161017657806323b872dd146101f0578063313ce567146102035780633644e5151461021257600080fd5b806306fdde031461019d578063095ea7b3146101bb57806318160ddd146101de575b600080fd5b6101a561041e565b6040516101b29190611cd5565b60405180910390f35b6101ce6101c9366004611d04565b6104b0565b60405190151581526020016101b2565b6002545b6040519081526020016101b2565b6101ce6101fe366004611d2e565b6104ca565b604051601281526020016101b2565b6101e26104ee565b6101e2610228366004611d04565b6104fd565b61024061023b366004611d04565b610583565b005b6101a56105a6565b610276610258366004611d6a565b6001600160a01b039081166000908152600860205260409020541690565b6040516001600160a01b0390911681526020016101b2565b61024061029c366004611d6a565b610637565b6102b46102af366004611d6a565b610642565b60405163ffffffff90911681526020016101b2565b6101e26102d7366004611d6a565b6001600160a01b031660009081526020819052604090205490565b6101e2610300366004611d6a565b61064d565b61030d610658565b6040516101b29796959493929190611d85565b6101e261032e366004611e3a565b6106ba565b61033b610724565b60405165ffffffffffff90911681526020016101b2565b6101a561072e565b6101e2610368366004611d6a565b61073d565b6101ce61037b366004611d04565b61076d565b61024061038e366004611e64565b61077b565b6102406103a1366004611ebc565b610851565b6101e26103b4366004611f26565b6001600160a01b03918216600090815260016020908152604080832093909416825291909152205490565b6103f26103ed366004611f59565b6109bd565b60408051825165ffffffffffff1681526020928301516001600160d01b031692810192909252016101b2565b60606003805461042d90611f99565b80601f016020809104026020016040519081016040528092919081815260200182805461045990611f99565b80156104a65780601f1061047b576101008083540402835291602001916104a6565b820191906000526020600020905b81548152906001019060200180831161048957829003601f168201915b5050505050905090565b6000336104be8185856109fa565b60019150505b92915050565b6000336104d8858285610a0c565b6104e3858585610aa3565b506001949350505050565b60006104f8610b1b565b905090565b600080610508610724565b90508065ffffffffffff16831061054857604051637669fc0f60e11b81526004810184905265ffffffffffff821660248201526044015b60405180910390fd5b61057261055484610c46565b6001600160a01b038616600090815260096020526040902090610c7d565b6001600160d01b0316949350505050565b6105a2826105936012600a6120cd565b61059d90846120dc565b610d36565b5050565b60606105b0610d6c565b65ffffffffffff166105c0610724565b65ffffffffffff16146105ff576040517f6ff0714000000000000000000000000000000000000000000000000000000000815260040160405180910390fd5b5060408051808201909152601d81527f6d6f64653d626c6f636b6e756d6265722666726f6d3d64656661756c74000000602082015290565b336105a28183610d77565b60006104c482610e01565b60006104c482610e23565b60006060806000806000606061066c610e41565b610674610e6e565b604080516000808252602082019092527f0f000000000000000000000000000000000000000000000000000000000000009b939a50919850469750309650945092509050565b6000806106c5610724565b90508065ffffffffffff16831061070057604051637669fc0f60e11b81526004810184905265ffffffffffff8216602482015260440161053f565b61071461070c84610c46565b600a90610c7d565b6001600160d01b03169392505050565b60006104f8610d6c565b60606004805461042d90611f99565b6001600160a01b038116600090815260096020526040812061075e90610e9b565b6001600160d01b031692915050565b6000336104be818585610aa3565b834211156107b8576040517f4683af0e0000000000000000000000000000000000000000000000000000000081526004810185905260240161053f565b604080517fe48329057bfd03d55e49b547132e39cffd9c1820ad7b9d4c5307691425d15adf60208201526001600160a01b0388169181019190915260608101869052608081018590526000906108329061082a9060a00160405160208183030381529060405280519060200120610ed7565b858585610f1f565b905061083e8187610f4d565b6108488188610d77565b50505050505050565b8342111561088e576040517f627913020000000000000000000000000000000000000000000000000000000081526004810185905260240161053f565b60007f6e71edae12b1b97f4d1f60370fef10105fa2faae0126114a169c64845d6126c98888886108db8c6001600160a01b0316600090815260076020526040902080546001810190915590565b6040805160208101969096526001600160a01b0394851690860152929091166060840152608083015260a082015260c0810186905260e001604051602081830303815290604052805190602001209050600061093682610ed7565b9050600061094682878787610f1f565b9050896001600160a01b0316816001600160a01b0316146109a6576040517f4b800e460000000000000000000000000000000000000000000000000000000081526001600160a01b0380831660048301528b16602482015260440161053f565b6109b18a8a8a6109fa565b50505050505050505050565b60408051808201909152600080825260208201526109db8383610fb9565b9392505050565b60006109db82846120f3565b60006109db828461211a565b610a078383836001610fef565b505050565b6001600160a01b038381166000908152600160209081526040808320938616835292905220546000198114610a9d5781811015610a8e576040517ffb8f41b20000000000000000000000000000000000000000000000000000000081526001600160a01b0384166004820152602481018290526044810183905260640161053f565b610a9d84848484036000610fef565b50505050565b6001600160a01b038316610ae6576040517f96c6fd1e0000000000000000000000000000000000000000000000000000000081526000600482015260240161053f565b6001600160a01b038216610b105760405163ec442f0560e01b81526000600482015260240161053f565b610a078383836110f6565b6000306001600160a01b037f000000000000000000000000000000000000000000000000000000000000000016148015610b7457507f000000000000000000000000000000000000000000000000000000000000000046145b15610b9e57507f000000000000000000000000000000000000000000000000000000000000000090565b6104f8604080517f8b73c3c69bb8fe3d512ecc4cf759cc79239f7b179b0ffacaa9a75d522b39400f60208201527f0000000000000000000000000000000000000000000000000000000000000000918101919091527f000000000000000000000000000000000000000000000000000000000000000060608201524660808201523060a082015260009060c00160405160208183030381529060405280519060200120905090565b600065ffffffffffff821115610c79576040516306dfcc6560e41b8152603060048201526024810183905260440161053f565b5090565b815460009081816005811115610cdc576000610c9884611101565b610ca2908561213a565b60008881526020902090915081015465ffffffffffff9081169087161015610ccc57809150610cda565b610cd781600161214d565b92505b505b6000610cea878785856111e9565b90508015610d2857610d0f87610d0160018461213a565b600091825260209091200190565b54660100000000000090046001600160d01b0316610d2b565b60005b979650505050505050565b6001600160a01b038216610d605760405163ec442f0560e01b81526000600482015260240161053f565b6105a2600083836110f6565b60006104f843610c46565b6001600160a01b0382811660008181526008602052604080822080548686167fffffffffffffffffffffffff0000000000000000000000000000000000000000821681179092559151919094169392849290917f3134e8a2e6d97e929a7e54011ea5485d7d196dd5f0ba4d4ef95803e8e3fc257f9190a4610a078183610dfc8661124b565b611269565b6001600160a01b0381166000908152600960205260408120546104c4906113d5565b6001600160a01b0381166000908152600760205260408120546104c4565b60606104f87f00000000000000000000000000000000000000000000000000000000000000006005611406565b60606104f87f00000000000000000000000000000000000000000000000000000000000000006006611406565b80546000908015610ece57610eb583610d0160018461213a565b54660100000000000090046001600160d01b03166109db565b60009392505050565b60006104c4610ee4610b1b565b836040517f19010000000000000000000000000000000000000000000000000000000000008152600281019290925260228201526042902090565b600080600080610f31888888886114b1565b925092509250610f418282611580565b50909695505050505050565b6001600160a01b0382166000908152600760205260409020805460018101909155818114610a07576040517f752d88c00000000000000000000000000000000000000000000000000000000081526001600160a01b03841660048201526024810182905260440161053f565b60408051808201909152600080825260208201526001600160a01b03831660009081526009602052604090206109db9083611684565b6001600160a01b038416611032576040517fe602df050000000000000000000000000000000000000000000000000000000081526000600482015260240161053f565b6001600160a01b038316611075576040517f94280d620000000000000000000000000000000000000000000000000000000081526000600482015260240161053f565b6001600160a01b0380851660009081526001602090815260408083209387168352929052208290558015610a9d57826001600160a01b0316846001600160a01b03167f8c5be1e5ebec7d5bd14f71427d1e84f3dd0314c0f7b2291e5b200ac8c7c3b925846040516110e891815260200190565b60405180910390a350505050565b610a078383836116f7565b60008160000361111357506000919050565b6000600161112084611777565b901c6001901b9050600181848161113957611139612160565b048201901c9050600181848161115157611151612160565b048201901c9050600181848161116957611169612160565b048201901c9050600181848161118157611181612160565b048201901c9050600181848161119957611199612160565b048201901c905060018184816111b1576111b1612160565b048201901c905060018184816111c9576111c9612160565b048201901c90506109db818285816111e3576111e3612160565b0461180b565b60005b818310156112435760006112008484611821565b60008781526020902090915065ffffffffffff86169082015465ffffffffffff16111561122f5780925061123d565b61123a81600161214d565b93505b506111ec565b509392505050565b6001600160a01b0381166000908152602081905260408120546104c4565b816001600160a01b0316836001600160a01b03161415801561128b5750600081115b15610a07576001600160a01b03831615611333576001600160a01b038316600090815260096020526040812081906112ce906109ee6112c98661183c565b611870565b6001600160d01b031691506001600160d01b03169150846001600160a01b03167fdec2bacdd2f05b59de34da9b523dff8be42e5e38e818c82fdb0bae774387a7248383604051611328929190918252602082015260400190565b60405180910390a250505b6001600160a01b03821615610a07576001600160a01b0382166000908152600960205260408120819061136c906109e26112c98661183c565b6001600160d01b031691506001600160d01b03169150836001600160a01b03167fdec2bacdd2f05b59de34da9b523dff8be42e5e38e818c82fdb0bae774387a72483836040516113c6929190918252602082015260400190565b60405180910390a25050505050565b600063ffffffff821115610c79576040516306dfcc6560e41b8152602060048201526024810183905260440161053f565b606060ff831461142057611419836118a9565b90506104c4565b81805461142c90611f99565b80601f016020809104026020016040519081016040528092919081815260200182805461145890611f99565b80156114a55780601f1061147a576101008083540402835291602001916114a5565b820191906000526020600020905b81548152906001019060200180831161148857829003601f168201915b505050505090506104c4565b600080807f7fffffffffffffffffffffffffffffff5d576e7357a4501ddfe92f46681b20a08411156114ec5750600091506003905082611576565b604080516000808252602082018084528a905260ff891692820192909252606081018790526080810186905260019060a0016020604051602081039080840390855afa158015611540573d6000803e3d6000fd5b5050604051601f1901519150506001600160a01b03811661156c57506000925060019150829050611576565b9250600091508190505b9450945094915050565b600082600381111561159457611594612176565b0361159d575050565b60018260038111156115b1576115b1612176565b036115e8576040517ff645eedf00000000000000000000000000000000000000000000000000000000815260040160405180910390fd5b60028260038111156115fc576115fc612176565b03611636576040517ffce698f70000000000000000000000000000000000000000000000000000000081526004810182905260240161053f565b600382600381111561164a5761164a612176565b036105a2576040517fd78bce0c0000000000000000000000000000000000000000000000000000000081526004810182905260240161053f565b6040805180820190915260008082526020820152826000018263ffffffff16815481106116b3576116b361218c565b60009182526020918290206040805180820190915291015465ffffffffffff81168252660100000000000090046001600160d01b0316918101919091529392505050565b6117028383836118e8565b6001600160a01b03831661176c57600061171b60025490565b90506001600160d01b0380821115611769576040517f1cb15d26000000000000000000000000000000000000000000000000000000008152600481018390526024810182905260440161053f565b50505b610a07838383611a2b565b600080608083901c1561178c57608092831c92015b604083901c1561179e57604092831c92015b602083901c156117b057602092831c92015b601083901c156117c257601092831c92015b600883901c156117d457600892831c92015b600483901c156117e657600492831c92015b600283901c156117f857600292831c92015b600183901c156104c45760010192915050565b600081831061181a57816109db565b5090919050565b600061183060028484186121a2565b6109db9084841661214d565b60006001600160d01b03821115610c79576040516306dfcc6560e41b815260d060048201526024810183905260440161053f565b60008061189c61187e610724565b61189461188a88610e9b565b868863ffffffff16565b879190611aa1565b915091505b935093915050565b606060006118b683611aaf565b604080516020808252818301909252919250600091906020820181803683375050509182525060208101929092525090565b6001600160a01b038316611913578060026000828254611908919061214d565b9091555061199e9050565b6001600160a01b0383166000908152602081905260409020548181101561197f576040517fe450d38c0000000000000000000000000000000000000000000000000000000081526001600160a01b0385166004820152602481018290526044810183905260640161053f565b6001600160a01b03841660009081526020819052604090209082900390555b6001600160a01b0382166119ba576002805482900390556119d9565b6001600160a01b03821660009081526020819052604090208054820190555b816001600160a01b0316836001600160a01b03167fddf252ad1be2c89b69c2b068fc378daa952ba7f163c4a11628f55a4df523b3ef83604051611a1e91815260200190565b60405180910390a3505050565b6001600160a01b038316611a4d57611a4a600a6109e26112c98461183c565b50505b6001600160a01b038216611a6f57611a6c600a6109ee6112c98461183c565b50505b6001600160a01b03838116600090815260086020526040808220548584168352912054610a0792918216911683611269565b60008061189c858585611af0565b600060ff8216601f8111156104c4576040517fb3512b0c00000000000000000000000000000000000000000000000000000000815260040160405180910390fd5b825460009081908015611c31576000611b0e87610d0160018561213a565b60408051808201909152905465ffffffffffff80821680845266010000000000009092046001600160d01b031660208401529192509087161015611b7e576040517f2520601d00000000000000000000000000000000000000000000000000000000815260040160405180910390fd5b805165ffffffffffff808816911603611bcd5784611ba188610d0160018661213a565b80546001600160d01b039290921666010000000000000265ffffffffffff909216919091179055611c21565b6040805180820190915265ffffffffffff80881682526001600160d01b0380881660208085019182528b54600181018d5560008d815291909120945191519092166601000000000000029216919091179101555b6020015192508391506118a19050565b50506040805180820190915265ffffffffffff80851682526001600160d01b0380851660208085019182528854600181018a5560008a81529182209551925190931666010000000000000291909316179201919091559050816118a1565b6000815180845260005b81811015611cb557602081850181015186830182015201611c99565b506000602082860101526020601f19601f83011685010191505092915050565b6020815260006109db6020830184611c8f565b80356001600160a01b0381168114611cff57600080fd5b919050565b60008060408385031215611d1757600080fd5b611d2083611ce8565b946020939093013593505050565b600080600060608486031215611d4357600080fd5b611d4c84611ce8565b9250611d5a60208501611ce8565b9150604084013590509250925092565b600060208284031215611d7c57600080fd5b6109db82611ce8565b7fff00000000000000000000000000000000000000000000000000000000000000881681526000602060e06020840152611dc260e084018a611c8f565b8381036040850152611dd4818a611c8f565b606085018990526001600160a01b038816608086015260a0850187905284810360c08601528551808252602080880193509091019060005b81811015611e2857835183529284019291840191600101611e0c565b50909c9b505050505050505050505050565b600060208284031215611e4c57600080fd5b5035919050565b803560ff81168114611cff57600080fd5b60008060008060008060c08789031215611e7d57600080fd5b611e8687611ce8565b95506020870135945060408701359350611ea260608801611e53565b92506080870135915060a087013590509295509295509295565b600080600080600080600060e0888a031215611ed757600080fd5b611ee088611ce8565b9650611eee60208901611ce8565b95506040880135945060608801359350611f0a60808901611e53565b925060a0880135915060c0880135905092959891949750929550565b60008060408385031215611f3957600080fd5b611f4283611ce8565b9150611f5060208401611ce8565b90509250929050565b60008060408385031215611f6c57600080fd5b611f7583611ce8565b9150602083013563ffffffff81168114611f8e57600080fd5b809150509250929050565b600181811c90821680611fad57607f821691505b602082108103611fcd57634e487b7160e01b600052602260045260246000fd5b50919050565b634e487b7160e01b600052601160045260246000fd5b600181815b8085111561202457816000190482111561200a5761200a611fd3565b8085161561201757918102915b93841c9390800290611fee565b509250929050565b60008261203b575060016104c4565b81612048575060006104c4565b816001811461205e576002811461206857612084565b60019150506104c4565b60ff84111561207957612079611fd3565b50506001821b6104c4565b5060208310610133831016604e8410600b84101617156120a7575081810a6104c4565b6120b18383611fe9565b80600019048211156120c5576120c5611fd3565b029392505050565b60006109db60ff84168361202c565b80820281158282048414176104c4576104c4611fd3565b6001600160d01b0381811683821601908082111561211357612113611fd3565b5092915050565b6001600160d01b0382811682821603908082111561211357612113611fd3565b818103818111156104c4576104c4611fd3565b808201808211156104c4576104c4611fd3565b634e487b7160e01b600052601260045260246000fd5b634e487b7160e01b600052602160045260246000fd5b634e487b7160e01b600052603260045260246000fd5b6000826121bf57634e487b7160e01b600052601260045260246000fd5b50049056fea264697066735822122065b77f88dbc3f1e904cd3c482935fa40ac6c4926bc91b5032264663d42bcb3a364736f6c63430008180033dec2bacdd2f05b59de34da9b523dff8be42e5e38e818c82fdb0bae774387a724","opcodes":"PUSH2 0x160 PUSH1 0x40 MSTORE CALLVALUE DUP1 ISZERO PUSH3 0x12 JUMPI PUSH1 0x0 DUP1 REVERT JUMPDEST POP PUSH1 0x40 MLOAD DUP1 PUSH1 0x40 ADD PUSH1 0x40 MSTORE DUP1 PUSH1 0x9 DUP2 MSTORE PUSH1 0x20 ADD PUSH9 0x2227A9902A37B5B2B7 PUSH1 0xB9 SHL DUP2 MSTORE POP DUP1 PUSH1 0x40 MLOAD DUP1 PUSH1 0x40 ADD PUSH1 0x40 MSTORE DUP1 PUSH1 0x1 DUP2 MSTORE PUSH1 0x20 ADD PUSH1 0x31 PUSH1 0xF8 SHL DUP2 MSTORE POP PUSH1 0x40 MLOAD DUP1 PUSH1 0x40 ADD PUSH1 0x40 MSTORE DUP1 PUSH1 0x9 DUP2 MSTORE PUSH1 0x20 ADD PUSH9 0x2227A9902A37B5B2B7 PUSH1 0xB9 SHL DUP2 MSTORE POP PUSH1 0x40 MLOAD DUP1 PUSH1 0x40 ADD PUSH1 0x40 MSTORE DUP1 PUSH1 0x3 DUP2 MSTORE PUSH1 0x20 ADD PUSH3 0x444F53 PUSH1 0xE8 SHL DUP2 MSTORE POP DUP2 PUSH1 0x3 SWAP1 DUP2 PUSH3 0x9F SWAP2 SWAP1 PUSH3 0x98B JUMP JUMPDEST POP PUSH1 0x4 PUSH3 0xAE DUP3 DUP3 PUSH3 0x98B JUMP JUMPDEST POP PUSH3 0xC0 SWAP2 POP DUP4 SWAP1 POP PUSH1 0x5 PUSH3 0x196 JUMP JUMPDEST PUSH2 0x120 MSTORE PUSH3 0xD1 DUP2 PUSH1 0x6 PUSH3 0x196 JUMP JUMPDEST PUSH2 0x140 MSTORE DUP2 MLOAD PUSH1 0x20 DUP1 DUP5 ADD SWAP2 SWAP1 SWAP2 KECCAK256 PUSH1 0xE0 MSTORE DUP2 MLOAD SWAP1 DUP3 ADD KECCAK256 PUSH2 0x100 MSTORE CHAINID PUSH1 0xA0 MSTORE PUSH3 0x15F PUSH1 0xE0 MLOAD PUSH2 0x100 MLOAD PUSH1 0x40 DUP1 MLOAD PUSH32 0x8B73C3C69BB8FE3D512ECC4CF759CC79239F7B179B0FFACAA9A75D522B39400F PUSH1 0x20 DUP3 ADD MSTORE SWAP1 DUP2 ADD SWAP3 SWAP1 SWAP3 MSTORE PUSH1 0x60 DUP3 ADD MSTORE CHAINID PUSH1 0x80 DUP3 ADD MSTORE ADDRESS PUSH1 0xA0 DUP3 ADD MSTORE PUSH1 0x0 SWAP1 PUSH1 0xC0 ADD PUSH1 0x40 MLOAD PUSH1 0x20 DUP2 DUP4 SUB SUB DUP2 MSTORE SWAP1 PUSH1 0x40 MSTORE DUP1 MLOAD SWAP1 PUSH1 0x20 ADD KECCAK256 SWAP1 POP SWAP1 JUMP JUMPDEST PUSH1 0x80 MSTORE POP POP ADDRESS PUSH1 0xC0 MSTORE POP PUSH3 0x190 CALLER PUSH3 0x17C PUSH1 0x12 PUSH1 0xA PUSH3 0xB6A JUMP JUMPDEST PUSH3 0x18A SWAP1 PUSH2 0x3E8 PUSH3 0xB7B JUMP JUMPDEST PUSH3 0x1CF JUMP JUMPDEST PUSH3 0xC84 JUMP JUMPDEST PUSH1 0x0 PUSH1 0x20 DUP4 MLOAD LT ISZERO PUSH3 0x1B6 JUMPI PUSH3 0x1AE DUP4 PUSH3 0x211 JUMP JUMPDEST SWAP1 POP PUSH3 0x1C9 JUMP JUMPDEST DUP2 PUSH3 0x1C3 DUP5 DUP3 PUSH3 0x98B JUMP JUMPDEST POP PUSH1 0xFF SWAP1 POP JUMPDEST SWAP3 SWAP2 POP POP JUMP JUMPDEST PUSH1 0x1 PUSH1 0x1 PUSH1 0xA0 SHL SUB DUP3 AND PUSH3 0x1FF JUMPI PUSH1 0x40 MLOAD PUSH4 0xEC442F05 PUSH1 0xE0 SHL DUP2 MSTORE PUSH1 0x0 PUSH1 0x4 DUP3 ADD MSTORE PUSH1 0x24 ADD JUMPDEST PUSH1 0x40 MLOAD DUP1 SWAP2 SUB SWAP1 REVERT JUMPDEST PUSH3 0x20D PUSH1 0x0 DUP4 DUP4 PUSH3 0x254 JUMP JUMPDEST POP POP JUMP JUMPDEST PUSH1 0x0 DUP1 DUP3 SWAP1 POP PUSH1 0x1F DUP2 MLOAD GT ISZERO PUSH3 0x23F JUMPI DUP3 PUSH1 0x40 MLOAD PUSH4 0x305A27A9 PUSH1 0xE0 SHL DUP2 MSTORE PUSH1 0x4 ADD PUSH3 0x1F6 SWAP2 SWAP1 PUSH3 0xB95 JUMP JUMPDEST DUP1 MLOAD PUSH3 0x24C DUP3 PUSH3 0xBE6 JUMP JUMPDEST OR SWAP4 SWAP3 POP POP POP JUMP JUMPDEST PUSH3 0x261 DUP4 DUP4 DUP4 PUSH3 0x266 JUMP JUMPDEST POP POP POP JUMP JUMPDEST PUSH3 0x273 DUP4 DUP4 DUP4 PUSH3 0x2D5 JUMP JUMPDEST PUSH1 0x1 PUSH1 0x1 PUSH1 0xA0 SHL SUB DUP4 AND PUSH3 0x2C8 JUMPI PUSH1 0x0 PUSH3 0x28E PUSH1 0x2 SLOAD SWAP1 JUMP JUMPDEST SWAP1 POP PUSH1 0x1 PUSH1 0x1 PUSH1 0xD0 SHL SUB DUP1 DUP3 GT ISZERO PUSH3 0x2C5 JUMPI PUSH1 0x40 MLOAD PUSH4 0xE58AE93 PUSH1 0xE1 SHL DUP2 MSTORE PUSH1 0x4 DUP2 ADD DUP4 SWAP1 MSTORE PUSH1 0x24 DUP2 ADD DUP3 SWAP1 MSTORE PUSH1 0x44 ADD PUSH3 0x1F6 JUMP JUMPDEST POP POP JUMPDEST PUSH3 0x261 DUP4 DUP4 DUP4 PUSH3 0x408 JUMP JUMPDEST PUSH1 0x1 PUSH1 0x1 PUSH1 0xA0 SHL SUB DUP4 AND PUSH3 0x304 JUMPI DUP1 PUSH1 0x2 PUSH1 0x0 DUP3 DUP3 SLOAD PUSH3 0x2F8 SWAP2 SWAP1 PUSH3 0xC0B JUMP JUMPDEST SWAP1 SWAP2 SSTORE POP PUSH3 0x378 SWAP1 POP JUMP JUMPDEST PUSH1 0x1 PUSH1 0x1 PUSH1 0xA0 SHL SUB DUP4 AND PUSH1 0x0 SWAP1 DUP2 MSTORE PUSH1 0x20 DUP2 SWAP1 MSTORE PUSH1 0x40 SWAP1 KECCAK256 SLOAD DUP2 DUP2 LT ISZERO PUSH3 0x359 JUMPI PUSH1 0x40 MLOAD PUSH4 0x391434E3 PUSH1 0xE2 SHL DUP2 MSTORE PUSH1 0x1 PUSH1 0x1 PUSH1 0xA0 SHL SUB DUP6 AND PUSH1 0x4 DUP3 ADD MSTORE PUSH1 0x24 DUP2 ADD DUP3 SWAP1 MSTORE PUSH1 0x44 DUP2 ADD DUP4 SWAP1 MSTORE PUSH1 0x64 ADD PUSH3 0x1F6 JUMP JUMPDEST PUSH1 0x1 PUSH1 0x1 PUSH1 0xA0 SHL SUB DUP5 AND PUSH1 0x0 SWAP1 DUP2 MSTORE PUSH1 0x20 DUP2 SWAP1 MSTORE PUSH1 0x40 SWAP1 KECCAK256 SWAP1 DUP3 SWAP1 SUB SWAP1 SSTORE JUMPDEST PUSH1 0x1 PUSH1 0x1 PUSH1 0xA0 SHL SUB DUP3 AND PUSH3 0x396 JUMPI PUSH1 0x2 DUP1 SLOAD DUP3 SWAP1 SUB SWAP1 SSTORE PUSH3 0x3B5 JUMP JUMPDEST PUSH1 0x1 PUSH1 0x1 PUSH1 0xA0 SHL SUB DUP3 AND PUSH1 0x0 SWAP1 DUP2 MSTORE PUSH1 0x20 DUP2 SWAP1 MSTORE PUSH1 0x40 SWAP1 KECCAK256 DUP1 SLOAD DUP3 ADD SWAP1 SSTORE JUMPDEST DUP2 PUSH1 0x1 PUSH1 0x1 PUSH1 0xA0 SHL SUB AND DUP4 PUSH1 0x1 PUSH1 0x1 PUSH1 0xA0 SHL SUB AND PUSH32 0xDDF252AD1BE2C89B69C2B068FC378DAA952BA7F163C4A11628F55A4DF523B3EF DUP4 PUSH1 0x40 MLOAD PUSH3 0x3FB SWAP2 DUP2 MSTORE PUSH1 0x20 ADD SWAP1 JUMP JUMPDEST PUSH1 0x40 MLOAD DUP1 SWAP2 SUB SWAP1 LOG3 POP POP POP JUMP JUMPDEST PUSH1 0x1 PUSH1 0x1 PUSH1 0xA0 SHL SUB DUP4 AND PUSH3 0x43D JUMPI PUSH3 0x43A PUSH1 0xA PUSH3 0x9E2 PUSH3 0x4A0 PUSH1 0x20 SHL OR PUSH3 0x434 DUP5 PUSH3 0x4B5 JUMP JUMPDEST PUSH3 0x4EF JUMP JUMPDEST POP POP JUMPDEST PUSH1 0x1 PUSH1 0x1 PUSH1 0xA0 SHL SUB DUP3 AND PUSH3 0x46C JUMPI PUSH3 0x469 PUSH1 0xA PUSH3 0x9EE PUSH3 0x52C PUSH1 0x20 SHL OR PUSH3 0x434 DUP5 PUSH3 0x4B5 JUMP JUMPDEST POP POP JUMPDEST PUSH1 0x1 PUSH1 0x1 PUSH1 0xA0 SHL SUB DUP4 DUP2 AND PUSH1 0x0 SWAP1 DUP2 MSTORE PUSH1 0x8 PUSH1 0x20 MSTORE PUSH1 0x40 DUP1 DUP3 KECCAK256 SLOAD DUP6 DUP5 AND DUP4 MSTORE SWAP2 KECCAK256 SLOAD PUSH3 0x261 SWAP3 SWAP2 DUP3 AND SWAP2 AND DUP4 PUSH3 0x53A JUMP JUMPDEST PUSH1 0x0 PUSH3 0x4AE DUP3 DUP5 PUSH3 0xC21 JUMP JUMPDEST SWAP4 SWAP3 POP POP POP JUMP JUMPDEST PUSH1 0x0 PUSH1 0x1 PUSH1 0x1 PUSH1 0xD0 SHL SUB DUP3 GT ISZERO PUSH3 0x4EB JUMPI PUSH1 0x40 MLOAD PUSH4 0x6DFCC65 PUSH1 0xE4 SHL DUP2 MSTORE PUSH1 0xD0 PUSH1 0x4 DUP3 ADD MSTORE PUSH1 0x24 DUP2 ADD DUP4 SWAP1 MSTORE PUSH1 0x44 ADD PUSH3 0x1F6 JUMP JUMPDEST POP SWAP1 JUMP JUMPDEST PUSH1 0x0 DUP1 PUSH3 0x51F PUSH3 0x500 PUSH3 0x6A1 JUMP JUMPDEST PUSH3 0x516 PUSH3 0x50F DUP9 PUSH3 0x6B2 JUMP JUMPDEST DUP7 DUP9 PUSH1 0x20 SHR JUMP JUMPDEST DUP8 SWAP2 SWAP1 PUSH3 0x701 JUMP JUMPDEST SWAP2 POP SWAP2 POP JUMPDEST SWAP4 POP SWAP4 SWAP2 POP POP JUMP JUMPDEST PUSH1 0x0 PUSH3 0x4AE DUP3 DUP5 PUSH3 0xC4B JUMP JUMPDEST DUP2 PUSH1 0x1 PUSH1 0x1 PUSH1 0xA0 SHL SUB AND DUP4 PUSH1 0x1 PUSH1 0x1 PUSH1 0xA0 SHL SUB AND EQ ISZERO DUP1 ISZERO PUSH3 0x55D JUMPI POP PUSH1 0x0 DUP2 GT JUMPDEST ISZERO PUSH3 0x261 JUMPI PUSH1 0x1 PUSH1 0x1 PUSH1 0xA0 SHL SUB DUP4 AND ISZERO PUSH3 0x600 JUMPI PUSH1 0x1 PUSH1 0x1 PUSH1 0xA0 SHL SUB DUP4 AND PUSH1 0x0 SWAP1 DUP2 MSTORE PUSH1 0x9 PUSH1 0x20 SWAP1 DUP2 MSTORE PUSH1 0x40 DUP3 KECCAK256 DUP3 SWAP2 PUSH3 0x5AB SWAP2 SWAP1 PUSH3 0x52C SWAP1 SHL PUSH3 0x9EE OR PUSH3 0x434 DUP7 PUSH3 0x4B5 JUMP JUMPDEST PUSH1 0x1 PUSH1 0x1 PUSH1 0xD0 SHL SUB AND SWAP2 POP PUSH1 0x1 PUSH1 0x1 PUSH1 0xD0 SHL SUB AND SWAP2 POP DUP5 PUSH1 0x1 PUSH1 0x1 PUSH1 0xA0 SHL SUB AND PUSH1 0x0 DUP1 MLOAD PUSH1 0x20 PUSH3 0x2ED9 DUP4 CODECOPY DUP2 MLOAD SWAP2 MSTORE DUP4 DUP4 PUSH1 0x40 MLOAD PUSH3 0x5F5 SWAP3 SWAP2 SWAP1 SWAP2 DUP3 MSTORE PUSH1 0x20 DUP3 ADD MSTORE PUSH1 0x40 ADD SWAP1 JUMP JUMPDEST PUSH1 0x40 MLOAD DUP1 SWAP2 SUB SWAP1 LOG2 POP POP JUMPDEST PUSH1 0x1 PUSH1 0x1 PUSH1 0xA0 SHL SUB DUP3 AND ISZERO PUSH3 0x261 JUMPI PUSH1 0x1 PUSH1 0x1 PUSH1 0xA0 SHL SUB DUP3 AND PUSH1 0x0 SWAP1 DUP2 MSTORE PUSH1 0x9 PUSH1 0x20 SWAP1 DUP2 MSTORE PUSH1 0x40 DUP3 KECCAK256 DUP3 SWAP2 PUSH3 0x648 SWAP2 SWAP1 PUSH3 0x4A0 SWAP1 SHL PUSH3 0x9E2 OR PUSH3 0x434 DUP7 PUSH3 0x4B5 JUMP JUMPDEST PUSH1 0x1 PUSH1 0x1 PUSH1 0xD0 SHL SUB AND SWAP2 POP PUSH1 0x1 PUSH1 0x1 PUSH1 0xD0 SHL SUB AND SWAP2 POP DUP4 PUSH1 0x1 PUSH1 0x1 PUSH1 0xA0 SHL SUB AND PUSH1 0x0 DUP1 MLOAD PUSH1 0x20 PUSH3 0x2ED9 DUP4 CODECOPY DUP2 MLOAD SWAP2 MSTORE DUP4 DUP4 PUSH1 0x40 MLOAD PUSH3 0x692 SWAP3 SWAP2 SWAP1 SWAP2 DUP3 MSTORE PUSH1 0x20 DUP3 ADD MSTORE PUSH1 0x40 ADD SWAP1 JUMP JUMPDEST PUSH1 0x40 MLOAD DUP1 SWAP2 SUB SWAP1 LOG2 POP POP POP POP POP JUMP JUMPDEST PUSH1 0x0 PUSH3 0x6AD PUSH3 0x711 JUMP JUMPDEST SWAP1 POP SWAP1 JUMP JUMPDEST DUP1 SLOAD PUSH1 0x0 SWAP1 DUP1 ISZERO PUSH3 0x6F8 JUMPI PUSH3 0x6DE DUP4 PUSH3 0x6D0 PUSH1 0x1 DUP5 PUSH3 0xC6E JUMP JUMPDEST PUSH1 0x0 SWAP2 DUP3 MSTORE PUSH1 0x20 SWAP1 SWAP2 KECCAK256 ADD SWAP1 JUMP JUMPDEST SLOAD PUSH7 0x1000000000000 SWAP1 DIV PUSH1 0x1 PUSH1 0x1 PUSH1 0xD0 SHL SUB AND PUSH3 0x4AE JUMP JUMPDEST PUSH1 0x0 SWAP4 SWAP3 POP POP POP JUMP JUMPDEST PUSH1 0x0 DUP1 PUSH3 0x51F DUP6 DUP6 DUP6 PUSH3 0x71E JUMP JUMPDEST PUSH1 0x0 PUSH3 0x6AD NUMBER PUSH3 0x8B0 JUMP JUMPDEST DUP3 SLOAD PUSH1 0x0 SWAP1 DUP2 SWAP1 DUP1 ISZERO PUSH3 0x851 JUMPI PUSH1 0x0 PUSH3 0x740 DUP8 PUSH3 0x6D0 PUSH1 0x1 DUP6 PUSH3 0xC6E JUMP JUMPDEST PUSH1 0x40 DUP1 MLOAD DUP1 DUP3 ADD SWAP1 SWAP2 MSTORE SWAP1 SLOAD PUSH6 0xFFFFFFFFFFFF DUP1 DUP3 AND DUP1 DUP5 MSTORE PUSH7 0x1000000000000 SWAP1 SWAP3 DIV PUSH1 0x1 PUSH1 0x1 PUSH1 0xD0 SHL SUB AND PUSH1 0x20 DUP5 ADD MSTORE SWAP2 SWAP3 POP SWAP1 DUP8 AND LT ISZERO PUSH3 0x798 JUMPI PUSH1 0x40 MLOAD PUSH4 0x2520601D PUSH1 0xE0 SHL DUP2 MSTORE PUSH1 0x4 ADD PUSH1 0x40 MLOAD DUP1 SWAP2 SUB SWAP1 REVERT JUMPDEST DUP1 MLOAD PUSH6 0xFFFFFFFFFFFF DUP1 DUP9 AND SWAP2 AND SUB PUSH3 0x7EC JUMPI DUP5 PUSH3 0x7BF DUP9 PUSH3 0x6D0 PUSH1 0x1 DUP7 PUSH3 0xC6E JUMP JUMPDEST DUP1 SLOAD PUSH1 0x1 PUSH1 0x1 PUSH1 0xD0 SHL SUB SWAP3 SWAP1 SWAP3 AND PUSH7 0x1000000000000 MUL PUSH6 0xFFFFFFFFFFFF SWAP1 SWAP3 AND SWAP2 SWAP1 SWAP2 OR SWAP1 SSTORE PUSH3 0x840 JUMP JUMPDEST PUSH1 0x40 DUP1 MLOAD DUP1 DUP3 ADD SWAP1 SWAP2 MSTORE PUSH6 0xFFFFFFFFFFFF DUP1 DUP9 AND DUP3 MSTORE PUSH1 0x1 PUSH1 0x1 PUSH1 0xD0 SHL SUB DUP1 DUP9 AND PUSH1 0x20 DUP1 DUP6 ADD SWAP2 DUP3 MSTORE DUP12 SLOAD PUSH1 0x1 DUP2 ADD DUP14 SSTORE PUSH1 0x0 DUP14 DUP2 MSTORE SWAP2 SWAP1 SWAP2 KECCAK256 SWAP5 MLOAD SWAP2 MLOAD SWAP1 SWAP3 AND PUSH7 0x1000000000000 MUL SWAP3 AND SWAP2 SWAP1 SWAP2 OR SWAP2 ADD SSTORE JUMPDEST PUSH1 0x20 ADD MLOAD SWAP3 POP DUP4 SWAP2 POP PUSH3 0x524 SWAP1 POP JUMP JUMPDEST POP POP PUSH1 0x40 DUP1 MLOAD DUP1 DUP3 ADD SWAP1 SWAP2 MSTORE PUSH6 0xFFFFFFFFFFFF DUP1 DUP6 AND DUP3 MSTORE PUSH1 0x1 PUSH1 0x1 PUSH1 0xD0 SHL SUB DUP1 DUP6 AND PUSH1 0x20 DUP1 DUP6 ADD SWAP2 DUP3 MSTORE DUP9 SLOAD PUSH1 0x1 DUP2 ADD DUP11 SSTORE PUSH1 0x0 DUP11 DUP2 MSTORE SWAP2 DUP3 KECCAK256 SWAP6 MLOAD SWAP3 MLOAD SWAP1 SWAP4 AND PUSH7 0x1000000000000 MUL SWAP2 SWAP1 SWAP4 AND OR SWAP3 ADD SWAP2 SWAP1 SWAP2 SSTORE SWAP1 POP DUP2 PUSH3 0x524 JUMP JUMPDEST PUSH1 0x0 PUSH6 0xFFFFFFFFFFFF DUP3 GT ISZERO PUSH3 0x4EB JUMPI PUSH1 0x40 MLOAD PUSH4 0x6DFCC65 PUSH1 0xE4 SHL DUP2 MSTORE PUSH1 0x30 PUSH1 0x4 DUP3 ADD MSTORE PUSH1 0x24 DUP2 ADD DUP4 SWAP1 MSTORE PUSH1 0x44 ADD PUSH3 0x1F6 JUMP JUMPDEST PUSH4 0x4E487B71 PUSH1 0xE0 SHL PUSH1 0x0 MSTORE PUSH1 0x41 PUSH1 0x4 MSTORE PUSH1 0x24 PUSH1 0x0 REVERT JUMPDEST PUSH1 0x1 DUP2 DUP2 SHR SWAP1 DUP3 AND DUP1 PUSH3 0x910 JUMPI PUSH1 0x7F DUP3 AND SWAP2 POP JUMPDEST PUSH1 0x20 DUP3 LT DUP2 SUB PUSH3 0x931 JUMPI PUSH4 0x4E487B71 PUSH1 0xE0 SHL PUSH1 0x0 MSTORE PUSH1 0x22 PUSH1 0x4 MSTORE PUSH1 0x24 PUSH1 0x0 REVERT JUMPDEST POP SWAP2 SWAP1 POP JUMP JUMPDEST PUSH1 0x1F DUP3 GT ISZERO PUSH3 0x261 JUMPI PUSH1 0x0 DUP2 PUSH1 0x0 MSTORE PUSH1 0x20 PUSH1 0x0 KECCAK256 PUSH1 0x1F DUP6 ADD PUSH1 0x5 SHR DUP2 ADD PUSH1 0x20 DUP7 LT ISZERO PUSH3 0x962 JUMPI POP DUP1 JUMPDEST PUSH1 0x1F DUP6 ADD PUSH1 0x5 SHR DUP3 ADD SWAP2 POP JUMPDEST DUP2 DUP2 LT ISZERO PUSH3 0x983 JUMPI DUP3 DUP2 SSTORE PUSH1 0x1 ADD PUSH3 0x96E JUMP JUMPDEST POP POP POP POP POP POP JUMP JUMPDEST DUP2 MLOAD PUSH1 0x1 PUSH1 0x1 PUSH1 0x40 SHL SUB DUP2 GT ISZERO PUSH3 0x9A7 JUMPI PUSH3 0x9A7 PUSH3 0x8E5 JUMP JUMPDEST PUSH3 0x9BF DUP2 PUSH3 0x9B8 DUP5 SLOAD PUSH3 0x8FB JUMP JUMPDEST DUP5 PUSH3 0x937 JUMP JUMPDEST PUSH1 0x20 DUP1 PUSH1 0x1F DUP4 GT PUSH1 0x1 DUP2 EQ PUSH3 0x9F7 JUMPI PUSH1 0x0 DUP5 ISZERO PUSH3 0x9DE JUMPI POP DUP6 DUP4 ADD MLOAD JUMPDEST PUSH1 0x0 NOT PUSH1 0x3 DUP7 SWAP1 SHL SHR NOT AND PUSH1 0x1 DUP6 SWAP1 SHL OR DUP6 SSTORE PUSH3 0x983 JUMP JUMPDEST PUSH1 0x0 DUP6 DUP2 MSTORE PUSH1 0x20 DUP2 KECCAK256 PUSH1 0x1F NOT DUP7 AND SWAP2 JUMPDEST DUP3 DUP2 LT ISZERO PUSH3 0xA28 JUMPI DUP9 DUP7 ADD MLOAD DUP3 SSTORE SWAP5 DUP5 ADD SWAP5 PUSH1 0x1 SWAP1 SWAP2 ADD SWAP1 DUP5 ADD PUSH3 0xA07 JUMP JUMPDEST POP DUP6 DUP3 LT ISZERO PUSH3 0xA47 JUMPI DUP8 DUP6 ADD MLOAD PUSH1 0x0 NOT PUSH1 0x3 DUP9 SWAP1 SHL PUSH1 0xF8 AND SHR NOT AND DUP2 SSTORE JUMPDEST POP POP POP POP POP PUSH1 0x1 SWAP1 DUP2 SHL ADD SWAP1 SSTORE POP JUMP JUMPDEST PUSH4 0x4E487B71 PUSH1 0xE0 SHL PUSH1 0x0 MSTORE PUSH1 0x11 PUSH1 0x4 MSTORE PUSH1 0x24 PUSH1 0x0 REVERT JUMPDEST PUSH1 0x1 DUP2 DUP2 JUMPDEST DUP1 DUP6 GT ISZERO PUSH3 0xAAE JUMPI DUP2 PUSH1 0x0 NOT DIV DUP3 GT ISZERO PUSH3 0xA92 JUMPI PUSH3 0xA92 PUSH3 0xA57 JUMP JUMPDEST DUP1 DUP6 AND ISZERO PUSH3 0xAA0 JUMPI SWAP2 DUP2 MUL SWAP2 JUMPDEST SWAP4 DUP5 SHR SWAP4 SWAP1 DUP1 MUL SWAP1 PUSH3 0xA72 JUMP JUMPDEST POP SWAP3 POP SWAP3 SWAP1 POP JUMP JUMPDEST PUSH1 0x0 DUP3 PUSH3 0xAC7 JUMPI POP PUSH1 0x1 PUSH3 0x1C9 JUMP JUMPDEST DUP2 PUSH3 0xAD6 JUMPI POP PUSH1 0x0 PUSH3 0x1C9 JUMP JUMPDEST DUP2 PUSH1 0x1 DUP2 EQ PUSH3 0xAEF JUMPI PUSH1 0x2 DUP2 EQ PUSH3 0xAFA JUMPI PUSH3 0xB1A JUMP JUMPDEST PUSH1 0x1 SWAP2 POP POP PUSH3 0x1C9 JUMP JUMPDEST PUSH1 0xFF DUP5 GT ISZERO PUSH3 0xB0E JUMPI PUSH3 0xB0E PUSH3 0xA57 JUMP JUMPDEST POP POP PUSH1 0x1 DUP3 SHL PUSH3 0x1C9 JUMP JUMPDEST POP PUSH1 0x20 DUP4 LT PUSH2 0x133 DUP4 LT AND PUSH1 0x4E DUP5 LT PUSH1 0xB DUP5 LT AND OR ISZERO PUSH3 0xB3F JUMPI POP DUP2 DUP2 EXP PUSH3 0x1C9 JUMP JUMPDEST PUSH3 0xB4B DUP4 DUP4 PUSH3 0xA6D JUMP JUMPDEST DUP1 PUSH1 0x0 NOT DIV DUP3 GT ISZERO PUSH3 0xB62 JUMPI PUSH3 0xB62 PUSH3 0xA57 JUMP JUMPDEST MUL SWAP4 SWAP3 POP POP POP JUMP JUMPDEST PUSH1 0x0 PUSH3 0x4AE PUSH1 0xFF DUP5 AND DUP4 PUSH3 0xAB6 JUMP JUMPDEST DUP1 DUP3 MUL DUP2 ISZERO DUP3 DUP3 DIV DUP5 EQ OR PUSH3 0x1C9 JUMPI PUSH3 0x1C9 PUSH3 0xA57 JUMP JUMPDEST PUSH1 0x0 PUSH1 0x20 DUP1 DUP4 MSTORE DUP4 MLOAD DUP1 PUSH1 0x20 DUP6 ADD MSTORE PUSH1 0x0 JUMPDEST DUP2 DUP2 LT ISZERO PUSH3 0xBC5 JUMPI DUP6 DUP2 ADD DUP4 ADD MLOAD DUP6 DUP3 ADD PUSH1 0x40 ADD MSTORE DUP3 ADD PUSH3 0xBA7 JUMP JUMPDEST POP PUSH1 0x0 PUSH1 0x40 DUP3 DUP7 ADD ADD MSTORE PUSH1 0x40 PUSH1 0x1F NOT PUSH1 0x1F DUP4 ADD AND DUP6 ADD ADD SWAP3 POP POP POP SWAP3 SWAP2 POP POP JUMP JUMPDEST DUP1 MLOAD PUSH1 0x20 DUP1 DUP4 ADD MLOAD SWAP2 SWAP1 DUP2 LT ISZERO PUSH3 0x931 JUMPI PUSH1 0x0 NOT PUSH1 0x20 SWAP2 SWAP1 SWAP2 SUB PUSH1 0x3 SHL SHL AND SWAP2 SWAP1 POP JUMP JUMPDEST DUP1 DUP3 ADD DUP1 DUP3 GT ISZERO PUSH3 0x1C9 JUMPI PUSH3 0x1C9 PUSH3 0xA57 JUMP JUMPDEST PUSH1 0x1 PUSH1 0x1 PUSH1 0xD0 SHL SUB DUP2 DUP2 AND DUP4 DUP3 AND ADD SWAP1 DUP1 DUP3 GT ISZERO PUSH3 0xC44 JUMPI PUSH3 0xC44 PUSH3 0xA57 JUMP JUMPDEST POP SWAP3 SWAP2 POP POP JUMP JUMPDEST PUSH1 0x1 PUSH1 0x1 PUSH1 0xD0 SHL SUB DUP3 DUP2 AND DUP3 DUP3 AND SUB SWAP1 DUP1 DUP3 GT ISZERO PUSH3 0xC44 JUMPI PUSH3 0xC44 PUSH3 0xA57 JUMP JUMPDEST DUP2 DUP2 SUB DUP2 DUP2 GT ISZERO PUSH3 0x1C9 JUMPI PUSH3 0x1C9 PUSH3 0xA57 JUMP JUMPDEST PUSH1 0x80 MLOAD PUSH1 0xA0 MLOAD PUSH1 0xC0 MLOAD PUSH1 0xE0 MLOAD PUSH2 0x100 MLOAD PUSH2 0x120 MLOAD PUSH2 0x140 MLOAD PUSH2 0x21FA PUSH3 0xCDF PUSH1 0x0 CODECOPY PUSH1 0x0 PUSH2 0xE75 ADD MSTORE PUSH1 0x0 PUSH2 0xE48 ADD MSTORE PUSH1 0x0 PUSH2 0xBF5 ADD MSTORE PUSH1 0x0 PUSH2 0xBCD ADD MSTORE PUSH1 0x0 PUSH2 0xB28 ADD MSTORE PUSH1 0x0 PUSH2 0xB52 ADD MSTORE PUSH1 0x0 PUSH2 0xB7C ADD MSTORE PUSH2 0x21FA PUSH1 0x0 RETURN INVALID PUSH1 0x80 PUSH1 0x40 MSTORE CALLVALUE DUP1 ISZERO PUSH2 0x10 JUMPI PUSH1 0x0 DUP1 REVERT JUMPDEST POP PUSH1 0x4 CALLDATASIZE LT PUSH2 0x198 JUMPI PUSH1 0x0 CALLDATALOAD PUSH1 0xE0 SHR DUP1 PUSH4 0x70A08231 GT PUSH2 0xE3 JUMPI DUP1 PUSH4 0x9AB24EB0 GT PUSH2 0x8C JUMPI DUP1 PUSH4 0xD505ACCF GT PUSH2 0x66 JUMPI DUP1 PUSH4 0xD505ACCF EQ PUSH2 0x393 JUMPI DUP1 PUSH4 0xDD62ED3E EQ PUSH2 0x3A6 JUMPI DUP1 PUSH4 0xF1127ED8 EQ PUSH2 0x3DF JUMPI PUSH1 0x0 DUP1 REVERT JUMPDEST DUP1 PUSH4 0x9AB24EB0 EQ PUSH2 0x35A JUMPI DUP1 PUSH4 0xA9059CBB EQ PUSH2 0x36D JUMPI DUP1 PUSH4 0xC3CDA520 EQ PUSH2 0x380 JUMPI PUSH1 0x0 DUP1 REVERT JUMPDEST DUP1 PUSH4 0x8E539E8C GT PUSH2 0xBD JUMPI DUP1 PUSH4 0x8E539E8C EQ PUSH2 0x320 JUMPI DUP1 PUSH4 0x91DDADF4 EQ PUSH2 0x333 JUMPI DUP1 PUSH4 0x95D89B41 EQ PUSH2 0x352 JUMPI PUSH1 0x0 DUP1 REVERT JUMPDEST DUP1 PUSH4 0x70A08231 EQ PUSH2 0x2C9 JUMPI DUP1 PUSH4 0x7ECEBE00 EQ PUSH2 0x2F2 JUMPI DUP1 PUSH4 0x84B0196E EQ PUSH2 0x305 JUMPI PUSH1 0x0 DUP1 REVERT JUMPDEST DUP1 PUSH4 0x3A46B1A8 GT PUSH2 0x145 JUMPI DUP1 PUSH4 0x587CDE1E GT PUSH2 0x11F JUMPI DUP1 PUSH4 0x587CDE1E EQ PUSH2 0x24A JUMPI DUP1 PUSH4 0x5C19A95C EQ PUSH2 0x28E JUMPI DUP1 PUSH4 0x6FCFFF45 EQ PUSH2 0x2A1 JUMPI PUSH1 0x0 DUP1 REVERT JUMPDEST DUP1 PUSH4 0x3A46B1A8 EQ PUSH2 0x21A JUMPI DUP1 PUSH4 0x40C10F19 EQ PUSH2 0x22D JUMPI DUP1 PUSH4 0x4BF5D7E9 EQ PUSH2 0x242 JUMPI PUSH1 0x0 DUP1 REVERT JUMPDEST DUP1 PUSH4 0x23B872DD GT PUSH2 0x176 JUMPI DUP1 PUSH4 0x23B872DD EQ PUSH2 0x1F0 JUMPI DUP1 PUSH4 0x313CE567 EQ PUSH2 0x203 JUMPI DUP1 PUSH4 0x3644E515 EQ PUSH2 0x212 JUMPI PUSH1 0x0 DUP1 REVERT JUMPDEST DUP1 PUSH4 0x6FDDE03 EQ PUSH2 0x19D JUMPI DUP1 PUSH4 0x95EA7B3 EQ PUSH2 0x1BB JUMPI DUP1 PUSH4 0x18160DDD EQ PUSH2 0x1DE JUMPI JUMPDEST PUSH1 0x0 DUP1 REVERT JUMPDEST PUSH2 0x1A5 PUSH2 0x41E JUMP JUMPDEST PUSH1 0x40 MLOAD PUSH2 0x1B2 SWAP2 SWAP1 PUSH2 0x1CD5 JUMP JUMPDEST PUSH1 0x40 MLOAD DUP1 SWAP2 SUB SWAP1 RETURN JUMPDEST PUSH2 0x1CE PUSH2 0x1C9 CALLDATASIZE PUSH1 0x4 PUSH2 0x1D04 JUMP JUMPDEST PUSH2 0x4B0 JUMP JUMPDEST PUSH1 0x40 MLOAD SWAP1 ISZERO ISZERO DUP2 MSTORE PUSH1 0x20 ADD PUSH2 0x1B2 JUMP JUMPDEST PUSH1 0x2 SLOAD JUMPDEST PUSH1 0x40 MLOAD SWAP1 DUP2 MSTORE PUSH1 0x20 ADD PUSH2 0x1B2 JUMP JUMPDEST PUSH2 0x1CE PUSH2 0x1FE CALLDATASIZE PUSH1 0x4 PUSH2 0x1D2E JUMP JUMPDEST PUSH2 0x4CA JUMP JUMPDEST PUSH1 0x40 MLOAD PUSH1 0x12 DUP2 MSTORE PUSH1 0x20 ADD PUSH2 0x1B2 JUMP JUMPDEST PUSH2 0x1E2 PUSH2 0x4EE JUMP JUMPDEST PUSH2 0x1E2 PUSH2 0x228 CALLDATASIZE PUSH1 0x4 PUSH2 0x1D04 JUMP JUMPDEST PUSH2 0x4FD JUMP JUMPDEST PUSH2 0x240 PUSH2 0x23B CALLDATASIZE PUSH1 0x4 PUSH2 0x1D04 JUMP JUMPDEST PUSH2 0x583 JUMP JUMPDEST STOP JUMPDEST PUSH2 0x1A5 PUSH2 0x5A6 JUMP JUMPDEST PUSH2 0x276 PUSH2 0x258 CALLDATASIZE PUSH1 0x4 PUSH2 0x1D6A JUMP JUMPDEST PUSH1 0x1 PUSH1 0x1 PUSH1 0xA0 SHL SUB SWAP1 DUP2 AND PUSH1 0x0 SWAP1 DUP2 MSTORE PUSH1 0x8 PUSH1 0x20 MSTORE PUSH1 0x40 SWAP1 KECCAK256 SLOAD AND SWAP1 JUMP JUMPDEST PUSH1 0x40 MLOAD PUSH1 0x1 PUSH1 0x1 PUSH1 0xA0 SHL SUB SWAP1 SWAP2 AND DUP2 MSTORE PUSH1 0x20 ADD PUSH2 0x1B2 JUMP JUMPDEST PUSH2 0x240 PUSH2 0x29C CALLDATASIZE PUSH1 0x4 PUSH2 0x1D6A JUMP JUMPDEST PUSH2 0x637 JUMP JUMPDEST PUSH2 0x2B4 PUSH2 0x2AF CALLDATASIZE PUSH1 0x4 PUSH2 0x1D6A JUMP JUMPDEST PUSH2 0x642 JUMP JUMPDEST PUSH1 0x40 MLOAD PUSH4 0xFFFFFFFF SWAP1 SWAP2 AND DUP2 MSTORE PUSH1 0x20 ADD PUSH2 0x1B2 JUMP JUMPDEST PUSH2 0x1E2 PUSH2 0x2D7 CALLDATASIZE PUSH1 0x4 PUSH2 0x1D6A JUMP JUMPDEST PUSH1 0x1 PUSH1 0x1 PUSH1 0xA0 SHL SUB AND PUSH1 0x0 SWAP1 DUP2 MSTORE PUSH1 0x20 DUP2 SWAP1 MSTORE PUSH1 0x40 SWAP1 KECCAK256 SLOAD SWAP1 JUMP JUMPDEST PUSH2 0x1E2 PUSH2 0x300 CALLDATASIZE PUSH1 0x4 PUSH2 0x1D6A JUMP JUMPDEST PUSH2 0x64D JUMP JUMPDEST PUSH2 0x30D PUSH2 0x658 JUMP JUMPDEST PUSH1 0x40 MLOAD PUSH2 0x1B2 SWAP8 SWAP7 SWAP6 SWAP5 SWAP4 SWAP3 SWAP2 SWAP1 PUSH2 0x1D85 JUMP JUMPDEST PUSH2 0x1E2 PUSH2 0x32E CALLDATASIZE PUSH1 0x4 PUSH2 0x1E3A JUMP JUMPDEST PUSH2 0x6BA JUMP JUMPDEST PUSH2 0x33B PUSH2 0x724 JUMP JUMPDEST PUSH1 0x40 MLOAD PUSH6 0xFFFFFFFFFFFF SWAP1 SWAP2 AND DUP2 MSTORE PUSH1 0x20 ADD PUSH2 0x1B2 JUMP JUMPDEST PUSH2 0x1A5 PUSH2 0x72E JUMP JUMPDEST PUSH2 0x1E2 PUSH2 0x368 CALLDATASIZE PUSH1 0x4 PUSH2 0x1D6A JUMP JUMPDEST PUSH2 0x73D JUMP JUMPDEST PUSH2 0x1CE PUSH2 0x37B CALLDATASIZE PUSH1 0x4 PUSH2 0x1D04 JUMP JUMPDEST PUSH2 0x76D JUMP JUMPDEST PUSH2 0x240 PUSH2 0x38E CALLDATASIZE PUSH1 0x4 PUSH2 0x1E64 JUMP JUMPDEST PUSH2 0x77B JUMP JUMPDEST PUSH2 0x240 PUSH2 0x3A1 CALLDATASIZE PUSH1 0x4 PUSH2 0x1EBC JUMP JUMPDEST PUSH2 0x851 JUMP JUMPDEST PUSH2 0x1E2 PUSH2 0x3B4 CALLDATASIZE PUSH1 0x4 PUSH2 0x1F26 JUMP JUMPDEST PUSH1 0x1 PUSH1 0x1 PUSH1 0xA0 SHL SUB SWAP2 DUP3 AND PUSH1 0x0 SWAP1 DUP2 MSTORE PUSH1 0x1 PUSH1 0x20 SWAP1 DUP2 MSTORE PUSH1 0x40 DUP1 DUP4 KECCAK256 SWAP4 SWAP1 SWAP5 AND DUP3 MSTORE SWAP2 SWAP1 SWAP2 MSTORE KECCAK256 SLOAD SWAP1 JUMP JUMPDEST PUSH2 0x3F2 PUSH2 0x3ED CALLDATASIZE PUSH1 0x4 PUSH2 0x1F59 JUMP JUMPDEST PUSH2 0x9BD JUMP JUMPDEST PUSH1 0x40 DUP1 MLOAD DUP3 MLOAD PUSH6 0xFFFFFFFFFFFF AND DUP2 MSTORE PUSH1 0x20 SWAP3 DUP4 ADD MLOAD PUSH1 0x1 PUSH1 0x1 PUSH1 0xD0 SHL SUB AND SWAP3 DUP2 ADD SWAP3 SWAP1 SWAP3 MSTORE ADD PUSH2 0x1B2 JUMP JUMPDEST PUSH1 0x60 PUSH1 0x3 DUP1 SLOAD PUSH2 0x42D SWAP1 PUSH2 0x1F99 JUMP JUMPDEST DUP1 PUSH1 0x1F ADD PUSH1 0x20 DUP1 SWAP2 DIV MUL PUSH1 0x20 ADD PUSH1 0x40 MLOAD SWAP1 DUP2 ADD PUSH1 0x40 MSTORE DUP1 SWAP3 SWAP2 SWAP1 DUP2 DUP2 MSTORE PUSH1 0x20 ADD DUP3 DUP1 SLOAD PUSH2 0x459 SWAP1 PUSH2 0x1F99 JUMP JUMPDEST DUP1 ISZERO PUSH2 0x4A6 JUMPI DUP1 PUSH1 0x1F LT PUSH2 0x47B JUMPI PUSH2 0x100 DUP1 DUP4 SLOAD DIV MUL DUP4 MSTORE SWAP2 PUSH1 0x20 ADD SWAP2 PUSH2 0x4A6 JUMP JUMPDEST DUP3 ADD SWAP2 SWAP1 PUSH1 0x0 MSTORE PUSH1 0x20 PUSH1 0x0 KECCAK256 SWAP1 JUMPDEST DUP2 SLOAD DUP2 MSTORE SWAP1 PUSH1 0x1 ADD SWAP1 PUSH1 0x20 ADD DUP1 DUP4 GT PUSH2 0x489 JUMPI DUP3 SWAP1 SUB PUSH1 0x1F AND DUP3 ADD SWAP2 JUMPDEST POP POP POP POP POP SWAP1 POP SWAP1 JUMP JUMPDEST PUSH1 0x0 CALLER PUSH2 0x4BE DUP2 DUP6 DUP6 PUSH2 0x9FA JUMP JUMPDEST PUSH1 0x1 SWAP2 POP POP JUMPDEST SWAP3 SWAP2 POP POP JUMP JUMPDEST PUSH1 0x0 CALLER PUSH2 0x4D8 DUP6 DUP3 DUP6 PUSH2 0xA0C JUMP JUMPDEST PUSH2 0x4E3 DUP6 DUP6 DUP6 PUSH2 0xAA3 JUMP JUMPDEST POP PUSH1 0x1 SWAP5 SWAP4 POP POP POP POP JUMP JUMPDEST PUSH1 0x0 PUSH2 0x4F8 PUSH2 0xB1B JUMP JUMPDEST SWAP1 POP SWAP1 JUMP JUMPDEST PUSH1 0x0 DUP1 PUSH2 0x508 PUSH2 0x724 JUMP JUMPDEST SWAP1 POP DUP1 PUSH6 0xFFFFFFFFFFFF AND DUP4 LT PUSH2 0x548 JUMPI PUSH1 0x40 MLOAD PUSH4 0x7669FC0F PUSH1 0xE1 SHL DUP2 MSTORE PUSH1 0x4 DUP2 ADD DUP5 SWAP1 MSTORE PUSH6 0xFFFFFFFFFFFF DUP3 AND PUSH1 0x24 DUP3 ADD MSTORE PUSH1 0x44 ADD JUMPDEST PUSH1 0x40 MLOAD DUP1 SWAP2 SUB SWAP1 REVERT JUMPDEST PUSH2 0x572 PUSH2 0x554 DUP5 PUSH2 0xC46 JUMP JUMPDEST PUSH1 0x1 PUSH1 0x1 PUSH1 0xA0 SHL SUB DUP7 AND PUSH1 0x0 SWAP1 DUP2 MSTORE PUSH1 0x9 PUSH1 0x20 MSTORE PUSH1 0x40 SWAP1 KECCAK256 SWAP1 PUSH2 0xC7D JUMP JUMPDEST PUSH1 0x1 PUSH1 0x1 PUSH1 0xD0 SHL SUB AND SWAP5 SWAP4 POP POP POP POP JUMP JUMPDEST PUSH2 0x5A2 DUP3 PUSH2 0x593 PUSH1 0x12 PUSH1 0xA PUSH2 0x20CD JUMP JUMPDEST PUSH2 0x59D SWAP1 DUP5 PUSH2 0x20DC JUMP JUMPDEST PUSH2 0xD36 JUMP JUMPDEST POP POP JUMP JUMPDEST PUSH1 0x60 PUSH2 0x5B0 PUSH2 0xD6C JUMP JUMPDEST PUSH6 0xFFFFFFFFFFFF AND PUSH2 0x5C0 PUSH2 0x724 JUMP JUMPDEST PUSH6 0xFFFFFFFFFFFF AND EQ PUSH2 0x5FF JUMPI PUSH1 0x40 MLOAD PUSH32 0x6FF0714000000000000000000000000000000000000000000000000000000000 DUP2 MSTORE PUSH1 0x4 ADD PUSH1 0x40 MLOAD DUP1 SWAP2 SUB SWAP1 REVERT JUMPDEST POP PUSH1 0x40 DUP1 MLOAD DUP1 DUP3 ADD SWAP1 SWAP2 MSTORE PUSH1 0x1D DUP2 MSTORE PUSH32 0x6D6F64653D626C6F636B6E756D6265722666726F6D3D64656661756C74000000 PUSH1 0x20 DUP3 ADD MSTORE SWAP1 JUMP JUMPDEST CALLER PUSH2 0x5A2 DUP2 DUP4 PUSH2 0xD77 JUMP JUMPDEST PUSH1 0x0 PUSH2 0x4C4 DUP3 PUSH2 0xE01 JUMP JUMPDEST PUSH1 0x0 PUSH2 0x4C4 DUP3 PUSH2 0xE23 JUMP JUMPDEST PUSH1 0x0 PUSH1 0x60 DUP1 PUSH1 0x0 DUP1 PUSH1 0x0 PUSH1 0x60 PUSH2 0x66C PUSH2 0xE41 JUMP JUMPDEST PUSH2 0x674 PUSH2 0xE6E JUMP JUMPDEST PUSH1 0x40 DUP1 MLOAD PUSH1 0x0 DUP1 DUP3 MSTORE PUSH1 0x20 DUP3 ADD SWAP1 SWAP3 MSTORE PUSH32 0xF00000000000000000000000000000000000000000000000000000000000000 SWAP12 SWAP4 SWAP11 POP SWAP2 SWAP9 POP CHAINID SWAP8 POP ADDRESS SWAP7 POP SWAP5 POP SWAP3 POP SWAP1 POP JUMP JUMPDEST PUSH1 0x0 DUP1 PUSH2 0x6C5 PUSH2 0x724 JUMP JUMPDEST SWAP1 POP DUP1 PUSH6 0xFFFFFFFFFFFF AND DUP4 LT PUSH2 0x700 JUMPI PUSH1 0x40 MLOAD PUSH4 0x7669FC0F PUSH1 0xE1 SHL DUP2 MSTORE PUSH1 0x4 DUP2 ADD DUP5 SWAP1 MSTORE PUSH6 0xFFFFFFFFFFFF DUP3 AND PUSH1 0x24 DUP3 ADD MSTORE PUSH1 0x44 ADD PUSH2 0x53F JUMP JUMPDEST PUSH2 0x714 PUSH2 0x70C DUP5 PUSH2 0xC46 JUMP JUMPDEST PUSH1 0xA SWAP1 PUSH2 0xC7D JUMP JUMPDEST PUSH1 0x1 PUSH1 0x1 PUSH1 0xD0 SHL SUB AND SWAP4 SWAP3 POP POP POP JUMP JUMPDEST PUSH1 0x0 PUSH2 0x4F8 PUSH2 0xD6C JUMP JUMPDEST PUSH1 0x60 PUSH1 0x4 DUP1 SLOAD PUSH2 0x42D SWAP1 PUSH2 0x1F99 JUMP JUMPDEST PUSH1 0x1 PUSH1 0x1 PUSH1 0xA0 SHL SUB DUP2 AND PUSH1 0x0 SWAP1 DUP2 MSTORE PUSH1 0x9 PUSH1 0x20 MSTORE PUSH1 0x40 DUP2 KECCAK256 PUSH2 0x75E SWAP1 PUSH2 0xE9B JUMP JUMPDEST PUSH1 0x1 PUSH1 0x1 PUSH1 0xD0 SHL SUB AND SWAP3 SWAP2 POP POP JUMP JUMPDEST PUSH1 0x0 CALLER PUSH2 0x4BE DUP2 DUP6 DUP6 PUSH2 0xAA3 JUMP JUMPDEST DUP4 TIMESTAMP GT ISZERO PUSH2 0x7B8 JUMPI PUSH1 0x40 MLOAD PUSH32 0x4683AF0E00000000000000000000000000000000000000000000000000000000 DUP2 MSTORE PUSH1 0x4 DUP2 ADD DUP6 SWAP1 MSTORE PUSH1 0x24 ADD PUSH2 0x53F JUMP JUMPDEST PUSH1 0x40 DUP1 MLOAD PUSH32 0xE48329057BFD03D55E49B547132E39CFFD9C1820AD7B9D4C5307691425D15ADF PUSH1 0x20 DUP3 ADD MSTORE PUSH1 0x1 PUSH1 0x1 PUSH1 0xA0 SHL SUB DUP9 AND SWAP2 DUP2 ADD SWAP2 SWAP1 SWAP2 MSTORE PUSH1 0x60 DUP2 ADD DUP7 SWAP1 MSTORE PUSH1 0x80 DUP2 ADD DUP6 SWAP1 MSTORE PUSH1 0x0 SWAP1 PUSH2 0x832 SWAP1 PUSH2 0x82A SWAP1 PUSH1 0xA0 ADD PUSH1 0x40 MLOAD PUSH1 0x20 DUP2 DUP4 SUB SUB DUP2 MSTORE SWAP1 PUSH1 0x40 MSTORE DUP1 MLOAD SWAP1 PUSH1 0x20 ADD KECCAK256 PUSH2 0xED7 JUMP JUMPDEST DUP6 DUP6 DUP6 PUSH2 0xF1F JUMP JUMPDEST SWAP1 POP PUSH2 0x83E DUP2 DUP8 PUSH2 0xF4D JUMP JUMPDEST PUSH2 0x848 DUP2 DUP9 PUSH2 0xD77 JUMP JUMPDEST POP POP POP POP POP POP POP JUMP JUMPDEST DUP4 TIMESTAMP GT ISZERO PUSH2 0x88E JUMPI PUSH1 0x40 MLOAD PUSH32 0x6279130200000000000000000000000000000000000000000000000000000000 DUP2 MSTORE PUSH1 0x4 DUP2 ADD DUP6 SWAP1 MSTORE PUSH1 0x24 ADD PUSH2 0x53F JUMP JUMPDEST PUSH1 0x0 PUSH32 0x6E71EDAE12B1B97F4D1F60370FEF10105FA2FAAE0126114A169C64845D6126C9 DUP9 DUP9 DUP9 PUSH2 0x8DB DUP13 PUSH1 0x1 PUSH1 0x1 PUSH1 0xA0 SHL SUB AND PUSH1 0x0 SWAP1 DUP2 MSTORE PUSH1 0x7 PUSH1 0x20 MSTORE PUSH1 0x40 SWAP1 KECCAK256 DUP1 SLOAD PUSH1 0x1 DUP2 ADD SWAP1 SWAP2 SSTORE SWAP1 JUMP JUMPDEST PUSH1 0x40 DUP1 MLOAD PUSH1 0x20 DUP2 ADD SWAP7 SWAP1 SWAP7 MSTORE PUSH1 0x1 PUSH1 0x1 PUSH1 0xA0 SHL SUB SWAP5 DUP6 AND SWAP1 DUP7 ADD MSTORE SWAP3 SWAP1 SWAP2 AND PUSH1 0x60 DUP5 ADD MSTORE PUSH1 0x80 DUP4 ADD MSTORE PUSH1 0xA0 DUP3 ADD MSTORE PUSH1 0xC0 DUP2 ADD DUP7 SWAP1 MSTORE PUSH1 0xE0 ADD PUSH1 0x40 MLOAD PUSH1 0x20 DUP2 DUP4 SUB SUB DUP2 MSTORE SWAP1 PUSH1 0x40 MSTORE DUP1 MLOAD SWAP1 PUSH1 0x20 ADD KECCAK256 SWAP1 POP PUSH1 0x0 PUSH2 0x936 DUP3 PUSH2 0xED7 JUMP JUMPDEST SWAP1 POP PUSH1 0x0 PUSH2 0x946 DUP3 DUP8 DUP8 DUP8 PUSH2 0xF1F JUMP JUMPDEST SWAP1 POP DUP10 PUSH1 0x1 PUSH1 0x1 PUSH1 0xA0 SHL SUB AND DUP2 PUSH1 0x1 PUSH1 0x1 PUSH1 0xA0 SHL SUB AND EQ PUSH2 0x9A6 JUMPI PUSH1 0x40 MLOAD PUSH32 0x4B800E4600000000000000000000000000000000000000000000000000000000 DUP2 MSTORE PUSH1 0x1 PUSH1 0x1 PUSH1 0xA0 SHL SUB DUP1 DUP4 AND PUSH1 0x4 DUP4 ADD MSTORE DUP12 AND PUSH1 0x24 DUP3 ADD MSTORE PUSH1 0x44 ADD PUSH2 0x53F JUMP JUMPDEST PUSH2 0x9B1 DUP11 DUP11 DUP11 PUSH2 0x9FA JUMP JUMPDEST POP POP POP POP POP POP POP POP POP POP JUMP JUMPDEST PUSH1 0x40 DUP1 MLOAD DUP1 DUP3 ADD SWAP1 SWAP2 MSTORE PUSH1 0x0 DUP1 DUP3 MSTORE PUSH1 0x20 DUP3 ADD MSTORE PUSH2 0x9DB DUP4 DUP4 PUSH2 0xFB9 JUMP JUMPDEST SWAP4 SWAP3 POP POP POP JUMP JUMPDEST PUSH1 0x0 PUSH2 0x9DB DUP3 DUP5 PUSH2 0x20F3 JUMP JUMPDEST PUSH1 0x0 PUSH2 0x9DB DUP3 DUP5 PUSH2 0x211A JUMP JUMPDEST PUSH2 0xA07 DUP4 DUP4 DUP4 PUSH1 0x1 PUSH2 0xFEF JUMP JUMPDEST POP POP POP JUMP JUMPDEST PUSH1 0x1 PUSH1 0x1 PUSH1 0xA0 SHL SUB DUP4 DUP2 AND PUSH1 0x0 SWAP1 DUP2 MSTORE PUSH1 0x1 PUSH1 0x20 SWAP1 DUP2 MSTORE PUSH1 0x40 DUP1 DUP4 KECCAK256 SWAP4 DUP7 AND DUP4 MSTORE SWAP3 SWAP1 MSTORE KECCAK256 SLOAD PUSH1 0x0 NOT DUP2 EQ PUSH2 0xA9D JUMPI DUP2 DUP2 LT ISZERO PUSH2 0xA8E JUMPI PUSH1 0x40 MLOAD PUSH32 0xFB8F41B200000000000000000000000000000000000000000000000000000000 DUP2 MSTORE PUSH1 0x1 PUSH1 0x1 PUSH1 0xA0 SHL SUB DUP5 AND PUSH1 0x4 DUP3 ADD MSTORE PUSH1 0x24 DUP2 ADD DUP3 SWAP1 MSTORE PUSH1 0x44 DUP2 ADD DUP4 SWAP1 MSTORE PUSH1 0x64 ADD PUSH2 0x53F JUMP JUMPDEST PUSH2 0xA9D DUP5 DUP5 DUP5 DUP5 SUB PUSH1 0x0 PUSH2 0xFEF JUMP JUMPDEST POP POP POP POP JUMP JUMPDEST PUSH1 0x1 PUSH1 0x1 PUSH1 0xA0 SHL SUB DUP4 AND PUSH2 0xAE6 JUMPI PUSH1 0x40 MLOAD PUSH32 0x96C6FD1E00000000000000000000000000000000000000000000000000000000 DUP2 MSTORE PUSH1 0x0 PUSH1 0x4 DUP3 ADD MSTORE PUSH1 0x24 ADD PUSH2 0x53F JUMP JUMPDEST PUSH1 0x1 PUSH1 0x1 PUSH1 0xA0 SHL SUB DUP3 AND PUSH2 0xB10 JUMPI PUSH1 0x40 MLOAD PUSH4 0xEC442F05 PUSH1 0xE0 SHL DUP2 MSTORE PUSH1 0x0 PUSH1 0x4 DUP3 ADD MSTORE PUSH1 0x24 ADD PUSH2 0x53F JUMP JUMPDEST PUSH2 0xA07 DUP4 DUP4 DUP4 PUSH2 0x10F6 JUMP JUMPDEST PUSH1 0x0 ADDRESS PUSH1 0x1 PUSH1 0x1 PUSH1 0xA0 SHL SUB PUSH32 0x0 AND EQ DUP1 ISZERO PUSH2 0xB74 JUMPI POP PUSH32 0x0 CHAINID EQ JUMPDEST ISZERO PUSH2 0xB9E JUMPI POP PUSH32 0x0 SWAP1 JUMP JUMPDEST PUSH2 0x4F8 PUSH1 0x40 DUP1 MLOAD PUSH32 0x8B73C3C69BB8FE3D512ECC4CF759CC79239F7B179B0FFACAA9A75D522B39400F PUSH1 0x20 DUP3 ADD MSTORE PUSH32 0x0 SWAP2 DUP2 ADD SWAP2 SWAP1 SWAP2 MSTORE PUSH32 0x0 PUSH1 0x60 DUP3 ADD MSTORE CHAINID PUSH1 0x80 DUP3 ADD MSTORE ADDRESS PUSH1 0xA0 DUP3 ADD MSTORE PUSH1 0x0 SWAP1 PUSH1 0xC0 ADD PUSH1 0x40 MLOAD PUSH1 0x20 DUP2 DUP4 SUB SUB DUP2 MSTORE SWAP1 PUSH1 0x40 MSTORE DUP1 MLOAD SWAP1 PUSH1 0x20 ADD KECCAK256 SWAP1 POP SWAP1 JUMP JUMPDEST PUSH1 0x0 PUSH6 0xFFFFFFFFFFFF DUP3 GT ISZERO PUSH2 0xC79 JUMPI PUSH1 0x40 MLOAD PUSH4 0x6DFCC65 PUSH1 0xE4 SHL DUP2 MSTORE PUSH1 0x30 PUSH1 0x4 DUP3 ADD MSTORE PUSH1 0x24 DUP2 ADD DUP4 SWAP1 MSTORE PUSH1 0x44 ADD PUSH2 0x53F JUMP JUMPDEST POP SWAP1 JUMP JUMPDEST DUP2 SLOAD PUSH1 0x0 SWAP1 DUP2 DUP2 PUSH1 0x5 DUP2 GT ISZERO PUSH2 0xCDC JUMPI PUSH1 0x0 PUSH2 0xC98 DUP5 PUSH2 0x1101 JUMP JUMPDEST PUSH2 0xCA2 SWAP1 DUP6 PUSH2 0x213A JUMP JUMPDEST PUSH1 0x0 DUP9 DUP2 MSTORE PUSH1 0x20 SWAP1 KECCAK256 SWAP1 SWAP2 POP DUP2 ADD SLOAD PUSH6 0xFFFFFFFFFFFF SWAP1 DUP2 AND SWAP1 DUP8 AND LT ISZERO PUSH2 0xCCC JUMPI DUP1 SWAP2 POP PUSH2 0xCDA JUMP JUMPDEST PUSH2 0xCD7 DUP2 PUSH1 0x1 PUSH2 0x214D JUMP JUMPDEST SWAP3 POP JUMPDEST POP JUMPDEST PUSH1 0x0 PUSH2 0xCEA DUP8 DUP8 DUP6 DUP6 PUSH2 0x11E9 JUMP JUMPDEST SWAP1 POP DUP1 ISZERO PUSH2 0xD28 JUMPI PUSH2 0xD0F DUP8 PUSH2 0xD01 PUSH1 0x1 DUP5 PUSH2 0x213A JUMP JUMPDEST PUSH1 0x0 SWAP2 DUP3 MSTORE PUSH1 0x20 SWAP1 SWAP2 KECCAK256 ADD SWAP1 JUMP JUMPDEST SLOAD PUSH7 0x1000000000000 SWAP1 DIV PUSH1 0x1 PUSH1 0x1 PUSH1 0xD0 SHL SUB AND PUSH2 0xD2B JUMP JUMPDEST PUSH1 0x0 JUMPDEST SWAP8 SWAP7 POP POP POP POP POP POP POP JUMP JUMPDEST PUSH1 0x1 PUSH1 0x1 PUSH1 0xA0 SHL SUB DUP3 AND PUSH2 0xD60 JUMPI PUSH1 0x40 MLOAD PUSH4 0xEC442F05 PUSH1 0xE0 SHL DUP2 MSTORE PUSH1 0x0 PUSH1 0x4 DUP3 ADD MSTORE PUSH1 0x24 ADD PUSH2 0x53F JUMP JUMPDEST PUSH2 0x5A2 PUSH1 0x0 DUP4 DUP4 PUSH2 0x10F6 JUMP JUMPDEST PUSH1 0x0 PUSH2 0x4F8 NUMBER PUSH2 0xC46 JUMP JUMPDEST PUSH1 0x1 PUSH1 0x1 PUSH1 0xA0 SHL SUB DUP3 DUP2 AND PUSH1 0x0 DUP2 DUP2 MSTORE PUSH1 0x8 PUSH1 0x20 MSTORE PUSH1 0x40 DUP1 DUP3 KECCAK256 DUP1 SLOAD DUP7 DUP7 AND PUSH32 0xFFFFFFFFFFFFFFFFFFFFFFFF0000000000000000000000000000000000000000 DUP3 AND DUP2 OR SWAP1 SWAP3 SSTORE SWAP2 MLOAD SWAP2 SWAP1 SWAP5 AND SWAP4 SWAP3 DUP5 SWAP3 SWAP1 SWAP2 PUSH32 0x3134E8A2E6D97E929A7E54011EA5485D7D196DD5F0BA4D4EF95803E8E3FC257F SWAP2 SWAP1 LOG4 PUSH2 0xA07 DUP2 DUP4 PUSH2 0xDFC DUP7 PUSH2 0x124B JUMP JUMPDEST PUSH2 0x1269 JUMP JUMPDEST PUSH1 0x1 PUSH1 0x1 PUSH1 0xA0 SHL SUB DUP2 AND PUSH1 0x0 SWAP1 DUP2 MSTORE PUSH1 0x9 PUSH1 0x20 MSTORE PUSH1 0x40 DUP2 KECCAK256 SLOAD PUSH2 0x4C4 SWAP1 PUSH2 0x13D5 JUMP JUMPDEST PUSH1 0x1 PUSH1 0x1 PUSH1 0xA0 SHL SUB DUP2 AND PUSH1 0x0 SWAP1 DUP2 MSTORE PUSH1 0x7 PUSH1 0x20 MSTORE PUSH1 0x40 DUP2 KECCAK256 SLOAD PUSH2 0x4C4 JUMP JUMPDEST PUSH1 0x60 PUSH2 0x4F8 PUSH32 0x0 PUSH1 0x5 PUSH2 0x1406 JUMP JUMPDEST PUSH1 0x60 PUSH2 0x4F8 PUSH32 0x0 PUSH1 0x6 PUSH2 0x1406 JUMP JUMPDEST DUP1 SLOAD PUSH1 0x0 SWAP1 DUP1 ISZERO PUSH2 0xECE JUMPI PUSH2 0xEB5 DUP4 PUSH2 0xD01 PUSH1 0x1 DUP5 PUSH2 0x213A JUMP JUMPDEST SLOAD PUSH7 0x1000000000000 SWAP1 DIV PUSH1 0x1 PUSH1 0x1 PUSH1 0xD0 SHL SUB AND PUSH2 0x9DB JUMP JUMPDEST PUSH1 0x0 SWAP4 SWAP3 POP POP POP JUMP JUMPDEST PUSH1 0x0 PUSH2 0x4C4 PUSH2 0xEE4 PUSH2 0xB1B JUMP JUMPDEST DUP4 PUSH1 0x40 MLOAD PUSH32 0x1901000000000000000000000000000000000000000000000000000000000000 DUP2 MSTORE PUSH1 0x2 DUP2 ADD SWAP3 SWAP1 SWAP3 MSTORE PUSH1 0x22 DUP3 ADD MSTORE PUSH1 0x42 SWAP1 KECCAK256 SWAP1 JUMP JUMPDEST PUSH1 0x0 DUP1 PUSH1 0x0 DUP1 PUSH2 0xF31 DUP9 DUP9 DUP9 DUP9 PUSH2 0x14B1 JUMP JUMPDEST SWAP3 POP SWAP3 POP SWAP3 POP PUSH2 0xF41 DUP3 DUP3 PUSH2 0x1580 JUMP JUMPDEST POP SWAP1 SWAP7 SWAP6 POP POP POP POP POP POP JUMP JUMPDEST PUSH1 0x1 PUSH1 0x1 PUSH1 0xA0 SHL SUB DUP3 AND PUSH1 0x0 SWAP1 DUP2 MSTORE PUSH1 0x7 PUSH1 0x20 MSTORE PUSH1 0x40 SWAP1 KECCAK256 DUP1 SLOAD PUSH1 0x1 DUP2 ADD SWAP1 SWAP2 SSTORE DUP2 DUP2 EQ PUSH2 0xA07 JUMPI PUSH1 0x40 MLOAD PUSH32 0x752D88C000000000000000000000000000000000000000000000000000000000 DUP2 MSTORE PUSH1 0x1 PUSH1 0x1 PUSH1 0xA0 SHL SUB DUP5 AND PUSH1 0x4 DUP3 ADD MSTORE PUSH1 0x24 DUP2 ADD DUP3 SWAP1 MSTORE PUSH1 0x44 ADD PUSH2 0x53F JUMP JUMPDEST PUSH1 0x40 DUP1 MLOAD DUP1 DUP3 ADD SWAP1 SWAP2 MSTORE PUSH1 0x0 DUP1 DUP3 MSTORE PUSH1 0x20 DUP3 ADD MSTORE PUSH1 0x1 PUSH1 0x1 PUSH1 0xA0 SHL SUB DUP4 AND PUSH1 0x0 SWAP1 DUP2 MSTORE PUSH1 0x9 PUSH1 0x20 MSTORE PUSH1 0x40 SWAP1 KECCAK256 PUSH2 0x9DB SWAP1 DUP4 PUSH2 0x1684 JUMP JUMPDEST PUSH1 0x1 PUSH1 0x1 PUSH1 0xA0 SHL SUB DUP5 AND PUSH2 0x1032 JUMPI PUSH1 0x40 MLOAD PUSH32 0xE602DF0500000000000000000000000000000000000000000000000000000000 DUP2 MSTORE PUSH1 0x0 PUSH1 0x4 DUP3 ADD MSTORE PUSH1 0x24 ADD PUSH2 0x53F JUMP JUMPDEST PUSH1 0x1 PUSH1 0x1 PUSH1 0xA0 SHL SUB DUP4 AND PUSH2 0x1075 JUMPI PUSH1 0x40 MLOAD PUSH32 0x94280D6200000000000000000000000000000000000000000000000000000000 DUP2 MSTORE PUSH1 0x0 PUSH1 0x4 DUP3 ADD MSTORE PUSH1 0x24 ADD PUSH2 0x53F JUMP JUMPDEST PUSH1 0x1 PUSH1 0x1 PUSH1 0xA0 SHL SUB DUP1 DUP6 AND PUSH1 0x0 SWAP1 DUP2 MSTORE PUSH1 0x1 PUSH1 0x20 SWAP1 DUP2 MSTORE PUSH1 0x40 DUP1 DUP4 KECCAK256 SWAP4 DUP8 AND DUP4 MSTORE SWAP3 SWAP1 MSTORE KECCAK256 DUP3 SWAP1 SSTORE DUP1 ISZERO PUSH2 0xA9D JUMPI DUP3 PUSH1 0x1 PUSH1 0x1 PUSH1 0xA0 SHL SUB AND DUP5 PUSH1 0x1 PUSH1 0x1 PUSH1 0xA0 SHL SUB AND PUSH32 0x8C5BE1E5EBEC7D5BD14F71427D1E84F3DD0314C0F7B2291E5B200AC8C7C3B925 DUP5 PUSH1 0x40 MLOAD PUSH2 0x10E8 SWAP2 DUP2 MSTORE PUSH1 0x20 ADD SWAP1 JUMP JUMPDEST PUSH1 0x40 MLOAD DUP1 SWAP2 SUB SWAP1 LOG3 POP POP POP POP JUMP JUMPDEST PUSH2 0xA07 DUP4 DUP4 DUP4 PUSH2 0x16F7 JUMP JUMPDEST PUSH1 0x0 DUP2 PUSH1 0x0 SUB PUSH2 0x1113 JUMPI POP PUSH1 0x0 SWAP2 SWAP1 POP JUMP JUMPDEST PUSH1 0x0 PUSH1 0x1 PUSH2 0x1120 DUP5 PUSH2 0x1777 JUMP JUMPDEST SWAP1 SHR PUSH1 0x1 SWAP1 SHL SWAP1 POP PUSH1 0x1 DUP2 DUP5 DUP2 PUSH2 0x1139 JUMPI PUSH2 0x1139 PUSH2 0x2160 JUMP JUMPDEST DIV DUP3 ADD SWAP1 SHR SWAP1 POP PUSH1 0x1 DUP2 DUP5 DUP2 PUSH2 0x1151 JUMPI PUSH2 0x1151 PUSH2 0x2160 JUMP JUMPDEST DIV DUP3 ADD SWAP1 SHR SWAP1 POP PUSH1 0x1 DUP2 DUP5 DUP2 PUSH2 0x1169 JUMPI PUSH2 0x1169 PUSH2 0x2160 JUMP JUMPDEST DIV DUP3 ADD SWAP1 SHR SWAP1 POP PUSH1 0x1 DUP2 DUP5 DUP2 PUSH2 0x1181 JUMPI PUSH2 0x1181 PUSH2 0x2160 JUMP JUMPDEST DIV DUP3 ADD SWAP1 SHR SWAP1 POP PUSH1 0x1 DUP2 DUP5 DUP2 PUSH2 0x1199 JUMPI PUSH2 0x1199 PUSH2 0x2160 JUMP JUMPDEST DIV DUP3 ADD SWAP1 SHR SWAP1 POP PUSH1 0x1 DUP2 DUP5 DUP2 PUSH2 0x11B1 JUMPI PUSH2 0x11B1 PUSH2 0x2160 JUMP JUMPDEST DIV DUP3 ADD SWAP1 SHR SWAP1 POP PUSH1 0x1 DUP2 DUP5 DUP2 PUSH2 0x11C9 JUMPI PUSH2 0x11C9 PUSH2 0x2160 JUMP JUMPDEST DIV DUP3 ADD SWAP1 SHR SWAP1 POP PUSH2 0x9DB DUP2 DUP3 DUP6 DUP2 PUSH2 0x11E3 JUMPI PUSH2 0x11E3 PUSH2 0x2160 JUMP JUMPDEST DIV PUSH2 0x180B JUMP JUMPDEST PUSH1 0x0 JUMPDEST DUP2 DUP4 LT ISZERO PUSH2 0x1243 JUMPI PUSH1 0x0 PUSH2 0x1200 DUP5 DUP5 PUSH2 0x1821 JUMP JUMPDEST PUSH1 0x0 DUP8 DUP2 MSTORE PUSH1 0x20 SWAP1 KECCAK256 SWAP1 SWAP2 POP PUSH6 0xFFFFFFFFFFFF DUP7 AND SWAP1 DUP3 ADD SLOAD PUSH6 0xFFFFFFFFFFFF AND GT ISZERO PUSH2 0x122F JUMPI DUP1 SWAP3 POP PUSH2 0x123D JUMP JUMPDEST PUSH2 0x123A DUP2 PUSH1 0x1 PUSH2 0x214D JUMP JUMPDEST SWAP4 POP JUMPDEST POP PUSH2 0x11EC JUMP JUMPDEST POP SWAP4 SWAP3 POP POP POP JUMP JUMPDEST PUSH1 0x1 PUSH1 0x1 PUSH1 0xA0 SHL SUB DUP2 AND PUSH1 0x0 SWAP1 DUP2 MSTORE PUSH1 0x20 DUP2 SWAP1 MSTORE PUSH1 0x40 DUP2 KECCAK256 SLOAD PUSH2 0x4C4 JUMP JUMPDEST DUP2 PUSH1 0x1 PUSH1 0x1 PUSH1 0xA0 SHL SUB AND DUP4 PUSH1 0x1 PUSH1 0x1 PUSH1 0xA0 SHL SUB AND EQ ISZERO DUP1 ISZERO PUSH2 0x128B JUMPI POP PUSH1 0x0 DUP2 GT JUMPDEST ISZERO PUSH2 0xA07 JUMPI PUSH1 0x1 PUSH1 0x1 PUSH1 0xA0 SHL SUB DUP4 AND ISZERO PUSH2 0x1333 JUMPI PUSH1 0x1 PUSH1 0x1 PUSH1 0xA0 SHL SUB DUP4 AND PUSH1 0x0 SWAP1 DUP2 MSTORE PUSH1 0x9 PUSH1 0x20 MSTORE PUSH1 0x40 DUP2 KECCAK256 DUP2 SWAP1 PUSH2 0x12CE SWAP1 PUSH2 0x9EE PUSH2 0x12C9 DUP7 PUSH2 0x183C JUMP JUMPDEST PUSH2 0x1870 JUMP JUMPDEST PUSH1 0x1 PUSH1 0x1 PUSH1 0xD0 SHL SUB AND SWAP2 POP PUSH1 0x1 PUSH1 0x1 PUSH1 0xD0 SHL SUB AND SWAP2 POP DUP5 PUSH1 0x1 PUSH1 0x1 PUSH1 0xA0 SHL SUB AND PUSH32 0xDEC2BACDD2F05B59DE34DA9B523DFF8BE42E5E38E818C82FDB0BAE774387A724 DUP4 DUP4 PUSH1 0x40 MLOAD PUSH2 0x1328 SWAP3 SWAP2 SWAP1 SWAP2 DUP3 MSTORE PUSH1 0x20 DUP3 ADD MSTORE PUSH1 0x40 ADD SWAP1 JUMP JUMPDEST PUSH1 0x40 MLOAD DUP1 SWAP2 SUB SWAP1 LOG2 POP POP JUMPDEST PUSH1 0x1 PUSH1 0x1 PUSH1 0xA0 SHL SUB DUP3 AND ISZERO PUSH2 0xA07 JUMPI PUSH1 0x1 PUSH1 0x1 PUSH1 0xA0 SHL SUB DUP3 AND PUSH1 0x0 SWAP1 DUP2 MSTORE PUSH1 0x9 PUSH1 0x20 MSTORE PUSH1 0x40 DUP2 KECCAK256 DUP2 SWAP1 PUSH2 0x136C SWAP1 PUSH2 0x9E2 PUSH2 0x12C9 DUP7 PUSH2 0x183C JUMP JUMPDEST PUSH1 0x1 PUSH1 0x1 PUSH1 0xD0 SHL SUB AND SWAP2 POP PUSH1 0x1 PUSH1 0x1 PUSH1 0xD0 SHL SUB AND SWAP2 POP DUP4 PUSH1 0x1 PUSH1 0x1 PUSH1 0xA0 SHL SUB AND PUSH32 0xDEC2BACDD2F05B59DE34DA9B523DFF8BE42E5E38E818C82FDB0BAE774387A724 DUP4 DUP4 PUSH1 0x40 MLOAD PUSH2 0x13C6 SWAP3 SWAP2 SWAP1 SWAP2 DUP3 MSTORE PUSH1 0x20 DUP3 ADD MSTORE PUSH1 0x40 ADD SWAP1 JUMP JUMPDEST PUSH1 0x40 MLOAD DUP1 SWAP2 SUB SWAP1 LOG2 POP POP POP POP POP JUMP JUMPDEST PUSH1 0x0 PUSH4 0xFFFFFFFF DUP3 GT ISZERO PUSH2 0xC79 JUMPI PUSH1 0x40 MLOAD PUSH4 0x6DFCC65 PUSH1 0xE4 SHL DUP2 MSTORE PUSH1 0x20 PUSH1 0x4 DUP3 ADD MSTORE PUSH1 0x24 DUP2 ADD DUP4 SWAP1 MSTORE PUSH1 0x44 ADD PUSH2 0x53F JUMP JUMPDEST PUSH1 0x60 PUSH1 0xFF DUP4 EQ PUSH2 0x1420 JUMPI PUSH2 0x1419 DUP4 PUSH2 0x18A9 JUMP JUMPDEST SWAP1 POP PUSH2 0x4C4 JUMP JUMPDEST DUP2 DUP1 SLOAD PUSH2 0x142C SWAP1 PUSH2 0x1F99 JUMP JUMPDEST DUP1 PUSH1 0x1F ADD PUSH1 0x20 DUP1 SWAP2 DIV MUL PUSH1 0x20 ADD PUSH1 0x40 MLOAD SWAP1 DUP2 ADD PUSH1 0x40 MSTORE DUP1 SWAP3 SWAP2 SWAP1 DUP2 DUP2 MSTORE PUSH1 0x20 ADD DUP3 DUP1 SLOAD PUSH2 0x1458 SWAP1 PUSH2 0x1F99 JUMP JUMPDEST DUP1 ISZERO PUSH2 0x14A5 JUMPI DUP1 PUSH1 0x1F LT PUSH2 0x147A JUMPI PUSH2 0x100 DUP1 DUP4 SLOAD DIV MUL DUP4 MSTORE SWAP2 PUSH1 0x20 ADD SWAP2 PUSH2 0x14A5 JUMP JUMPDEST DUP3 ADD SWAP2 SWAP1 PUSH1 0x0 MSTORE PUSH1 0x20 PUSH1 0x0 KECCAK256 SWAP1 JUMPDEST DUP2 SLOAD DUP2 MSTORE SWAP1 PUSH1 0x1 ADD SWAP1 PUSH1 0x20 ADD DUP1 DUP4 GT PUSH2 0x1488 JUMPI DUP3 SWAP1 SUB PUSH1 0x1F AND DUP3 ADD SWAP2 JUMPDEST POP POP POP POP POP SWAP1 POP PUSH2 0x4C4 JUMP JUMPDEST PUSH1 0x0 DUP1 DUP1 PUSH32 0x7FFFFFFFFFFFFFFFFFFFFFFFFFFFFFFF5D576E7357A4501DDFE92F46681B20A0 DUP5 GT ISZERO PUSH2 0x14EC JUMPI POP PUSH1 0x0 SWAP2 POP PUSH1 0x3 SWAP1 POP DUP3 PUSH2 0x1576 JUMP JUMPDEST PUSH1 0x40 DUP1 MLOAD PUSH1 0x0 DUP1 DUP3 MSTORE PUSH1 0x20 DUP3 ADD DUP1 DUP5 MSTORE DUP11 SWAP1 MSTORE PUSH1 0xFF DUP10 AND SWAP3 DUP3 ADD SWAP3 SWAP1 SWAP3 MSTORE PUSH1 0x60 DUP2 ADD DUP8 SWAP1 MSTORE PUSH1 0x80 DUP2 ADD DUP7 SWAP1 MSTORE PUSH1 0x1 SWAP1 PUSH1 0xA0 ADD PUSH1 0x20 PUSH1 0x40 MLOAD PUSH1 0x20 DUP2 SUB SWAP1 DUP1 DUP5 SUB SWAP1 DUP6 GAS STATICCALL ISZERO DUP1 ISZERO PUSH2 0x1540 JUMPI RETURNDATASIZE PUSH1 0x0 DUP1 RETURNDATACOPY RETURNDATASIZE PUSH1 0x0 REVERT JUMPDEST POP POP PUSH1 0x40 MLOAD PUSH1 0x1F NOT ADD MLOAD SWAP2 POP POP PUSH1 0x1 PUSH1 0x1 PUSH1 0xA0 SHL SUB DUP2 AND PUSH2 0x156C JUMPI POP PUSH1 0x0 SWAP3 POP PUSH1 0x1 SWAP2 POP DUP3 SWAP1 POP PUSH2 0x1576 JUMP JUMPDEST SWAP3 POP PUSH1 0x0 SWAP2 POP DUP2 SWAP1 POP JUMPDEST SWAP5 POP SWAP5 POP SWAP5 SWAP2 POP POP JUMP JUMPDEST PUSH1 0x0 DUP3 PUSH1 0x3 DUP2 GT ISZERO PUSH2 0x1594 JUMPI PUSH2 0x1594 PUSH2 0x2176 JUMP JUMPDEST SUB PUSH2 0x159D JUMPI POP POP JUMP JUMPDEST PUSH1 0x1 DUP3 PUSH1 0x3 DUP2 GT ISZERO PUSH2 0x15B1 JUMPI PUSH2 0x15B1 PUSH2 0x2176 JUMP JUMPDEST SUB PUSH2 0x15E8 JUMPI PUSH1 0x40 MLOAD PUSH32 0xF645EEDF00000000000000000000000000000000000000000000000000000000 DUP2 MSTORE PUSH1 0x4 ADD PUSH1 0x40 MLOAD DUP1 SWAP2 SUB SWAP1 REVERT JUMPDEST PUSH1 0x2 DUP3 PUSH1 0x3 DUP2 GT ISZERO PUSH2 0x15FC JUMPI PUSH2 0x15FC PUSH2 0x2176 JUMP JUMPDEST SUB PUSH2 0x1636 JUMPI PUSH1 0x40 MLOAD PUSH32 0xFCE698F700000000000000000000000000000000000000000000000000000000 DUP2 MSTORE PUSH1 0x4 DUP2 ADD DUP3 SWAP1 MSTORE PUSH1 0x24 ADD PUSH2 0x53F JUMP JUMPDEST PUSH1 0x3 DUP3 PUSH1 0x3 DUP2 GT ISZERO PUSH2 0x164A JUMPI PUSH2 0x164A PUSH2 0x2176 JUMP JUMPDEST SUB PUSH2 0x5A2 JUMPI PUSH1 0x40 MLOAD PUSH32 0xD78BCE0C00000000000000000000000000000000000000000000000000000000 DUP2 MSTORE PUSH1 0x4 DUP2 ADD DUP3 SWAP1 MSTORE PUSH1 0x24 ADD PUSH2 0x53F JUMP JUMPDEST PUSH1 0x40 DUP1 MLOAD DUP1 DUP3 ADD SWAP1 SWAP2 MSTORE PUSH1 0x0 DUP1 DUP3 MSTORE PUSH1 0x20 DUP3 ADD MSTORE DUP3 PUSH1 0x0 ADD DUP3 PUSH4 0xFFFFFFFF AND DUP2 SLOAD DUP2 LT PUSH2 0x16B3 JUMPI PUSH2 0x16B3 PUSH2 0x218C JUMP JUMPDEST PUSH1 0x0 SWAP2 DUP3 MSTORE PUSH1 0x20 SWAP2 DUP3 SWAP1 KECCAK256 PUSH1 0x40 DUP1 MLOAD DUP1 DUP3 ADD SWAP1 SWAP2 MSTORE SWAP2 ADD SLOAD PUSH6 0xFFFFFFFFFFFF DUP2 AND DUP3 MSTORE PUSH7 0x1000000000000 SWAP1 DIV PUSH1 0x1 PUSH1 0x1 PUSH1 0xD0 SHL SUB AND SWAP2 DUP2 ADD SWAP2 SWAP1 SWAP2 MSTORE SWAP4 SWAP3 POP POP POP JUMP JUMPDEST PUSH2 0x1702 DUP4 DUP4 DUP4 PUSH2 0x18E8 JUMP JUMPDEST PUSH1 0x1 PUSH1 0x1 PUSH1 0xA0 SHL SUB DUP4 AND PUSH2 0x176C JUMPI PUSH1 0x0 PUSH2 0x171B PUSH1 0x2 SLOAD SWAP1 JUMP JUMPDEST SWAP1 POP PUSH1 0x1 PUSH1 0x1 PUSH1 0xD0 SHL SUB DUP1 DUP3 GT ISZERO PUSH2 0x1769 JUMPI PUSH1 0x40 MLOAD PUSH32 0x1CB15D2600000000000000000000000000000000000000000000000000000000 DUP2 MSTORE PUSH1 0x4 DUP2 ADD DUP4 SWAP1 MSTORE PUSH1 0x24 DUP2 ADD DUP3 SWAP1 MSTORE PUSH1 0x44 ADD PUSH2 0x53F JUMP JUMPDEST POP POP JUMPDEST PUSH2 0xA07 DUP4 DUP4 DUP4 PUSH2 0x1A2B JUMP JUMPDEST PUSH1 0x0 DUP1 PUSH1 0x80 DUP4 SWAP1 SHR ISZERO PUSH2 0x178C JUMPI PUSH1 0x80 SWAP3 DUP4 SHR SWAP3 ADD JUMPDEST PUSH1 0x40 DUP4 SWAP1 SHR ISZERO PUSH2 0x179E JUMPI PUSH1 0x40 SWAP3 DUP4 SHR SWAP3 ADD JUMPDEST PUSH1 0x20 DUP4 SWAP1 SHR ISZERO PUSH2 0x17B0 JUMPI PUSH1 0x20 SWAP3 DUP4 SHR SWAP3 ADD JUMPDEST PUSH1 0x10 DUP4 SWAP1 SHR ISZERO PUSH2 0x17C2 JUMPI PUSH1 0x10 SWAP3 DUP4 SHR SWAP3 ADD JUMPDEST PUSH1 0x8 DUP4 SWAP1 SHR ISZERO PUSH2 0x17D4 JUMPI PUSH1 0x8 SWAP3 DUP4 SHR SWAP3 ADD JUMPDEST PUSH1 0x4 DUP4 SWAP1 SHR ISZERO PUSH2 0x17E6 JUMPI PUSH1 0x4 SWAP3 DUP4 SHR SWAP3 ADD JUMPDEST PUSH1 0x2 DUP4 SWAP1 SHR ISZERO PUSH2 0x17F8 JUMPI PUSH1 0x2 SWAP3 DUP4 SHR SWAP3 ADD JUMPDEST PUSH1 0x1 DUP4 SWAP1 SHR ISZERO PUSH2 0x4C4 JUMPI PUSH1 0x1 ADD SWAP3 SWAP2 POP POP JUMP JUMPDEST PUSH1 0x0 DUP2 DUP4 LT PUSH2 0x181A JUMPI DUP2 PUSH2 0x9DB JUMP JUMPDEST POP SWAP1 SWAP2 SWAP1 POP JUMP JUMPDEST PUSH1 0x0 PUSH2 0x1830 PUSH1 0x2 DUP5 DUP5 XOR PUSH2 0x21A2 JUMP JUMPDEST PUSH2 0x9DB SWAP1 DUP5 DUP5 AND PUSH2 0x214D JUMP JUMPDEST PUSH1 0x0 PUSH1 0x1 PUSH1 0x1 PUSH1 0xD0 SHL SUB DUP3 GT ISZERO PUSH2 0xC79 JUMPI PUSH1 0x40 MLOAD PUSH4 0x6DFCC65 PUSH1 0xE4 SHL DUP2 MSTORE PUSH1 0xD0 PUSH1 0x4 DUP3 ADD MSTORE PUSH1 0x24 DUP2 ADD DUP4 SWAP1 MSTORE PUSH1 0x44 ADD PUSH2 0x53F JUMP JUMPDEST PUSH1 0x0 DUP1 PUSH2 0x189C PUSH2 0x187E PUSH2 0x724 JUMP JUMPDEST PUSH2 0x1894 PUSH2 0x188A DUP9 PUSH2 0xE9B JUMP JUMPDEST DUP7 DUP9 PUSH4 0xFFFFFFFF AND JUMP JUMPDEST DUP8 SWAP2 SWAP1 PUSH2 0x1AA1 JUMP JUMPDEST SWAP2 POP SWAP2 POP JUMPDEST SWAP4 POP SWAP4 SWAP2 POP POP JUMP JUMPDEST PUSH1 0x60 PUSH1 0x0 PUSH2 0x18B6 DUP4 PUSH2 0x1AAF JUMP JUMPDEST PUSH1 0x40 DUP1 MLOAD PUSH1 0x20 DUP1 DUP3 MSTORE DUP2 DUP4 ADD SWAP1 SWAP3 MSTORE SWAP2 SWAP3 POP PUSH1 0x0 SWAP2 SWAP1 PUSH1 0x20 DUP3 ADD DUP2 DUP1 CALLDATASIZE DUP4 CALLDATACOPY POP POP POP SWAP2 DUP3 MSTORE POP PUSH1 0x20 DUP2 ADD SWAP3 SWAP1 SWAP3 MSTORE POP SWAP1 JUMP JUMPDEST PUSH1 0x1 PUSH1 0x1 PUSH1 0xA0 SHL SUB DUP4 AND PUSH2 0x1913 JUMPI DUP1 PUSH1 0x2 PUSH1 0x0 DUP3 DUP3 SLOAD PUSH2 0x1908 SWAP2 SWAP1 PUSH2 0x214D JUMP JUMPDEST SWAP1 SWAP2 SSTORE POP PUSH2 0x199E SWAP1 POP JUMP JUMPDEST PUSH1 0x1 PUSH1 0x1 PUSH1 0xA0 SHL SUB DUP4 AND PUSH1 0x0 SWAP1 DUP2 MSTORE PUSH1 0x20 DUP2 SWAP1 MSTORE PUSH1 0x40 SWAP1 KECCAK256 SLOAD DUP2 DUP2 LT ISZERO PUSH2 0x197F JUMPI PUSH1 0x40 MLOAD PUSH32 0xE450D38C00000000000000000000000000000000000000000000000000000000 DUP2 MSTORE PUSH1 0x1 PUSH1 0x1 PUSH1 0xA0 SHL SUB DUP6 AND PUSH1 0x4 DUP3 ADD MSTORE PUSH1 0x24 DUP2 ADD DUP3 SWAP1 MSTORE PUSH1 0x44 DUP2 ADD DUP4 SWAP1 MSTORE PUSH1 0x64 ADD PUSH2 0x53F JUMP JUMPDEST PUSH1 0x1 PUSH1 0x1 PUSH1 0xA0 SHL SUB DUP5 AND PUSH1 0x0 SWAP1 DUP2 MSTORE PUSH1 0x20 DUP2 SWAP1 MSTORE PUSH1 0x40 SWAP1 KECCAK256 SWAP1 DUP3 SWAP1 SUB SWAP1 SSTORE JUMPDEST PUSH1 0x1 PUSH1 0x1 PUSH1 0xA0 SHL SUB DUP3 AND PUSH2 0x19BA JUMPI PUSH1 0x2 DUP1 SLOAD DUP3 SWAP1 SUB SWAP1 SSTORE PUSH2 0x19D9 JUMP JUMPDEST PUSH1 0x1 PUSH1 0x1 PUSH1 0xA0 SHL SUB DUP3 AND PUSH1 0x0 SWAP1 DUP2 MSTORE PUSH1 0x20 DUP2 SWAP1 MSTORE PUSH1 0x40 SWAP1 KECCAK256 DUP1 SLOAD DUP3 ADD SWAP1 SSTORE JUMPDEST DUP2 PUSH1 0x1 PUSH1 0x1 PUSH1 0xA0 SHL SUB AND DUP4 PUSH1 0x1 PUSH1 0x1 PUSH1 0xA0 SHL SUB AND PUSH32 0xDDF252AD1BE2C89B69C2B068FC378DAA952BA7F163C4A11628F55A4DF523B3EF DUP4 PUSH1 0x40 MLOAD PUSH2 0x1A1E SWAP2 DUP2 MSTORE PUSH1 0x20 ADD SWAP1 JUMP JUMPDEST PUSH1 0x40 MLOAD DUP1 SWAP2 SUB SWAP1 LOG3 POP POP POP JUMP JUMPDEST PUSH1 0x1 PUSH1 0x1 PUSH1 0xA0 SHL SUB DUP4 AND PUSH2 0x1A4D JUMPI PUSH2 0x1A4A PUSH1 0xA PUSH2 0x9E2 PUSH2 0x12C9 DUP5 PUSH2 0x183C JUMP JUMPDEST POP POP JUMPDEST PUSH1 0x1 PUSH1 0x1 PUSH1 0xA0 SHL SUB DUP3 AND PUSH2 0x1A6F JUMPI PUSH2 0x1A6C PUSH1 0xA PUSH2 0x9EE PUSH2 0x12C9 DUP5 PUSH2 0x183C JUMP JUMPDEST POP POP JUMPDEST PUSH1 0x1 PUSH1 0x1 PUSH1 0xA0 SHL SUB DUP4 DUP2 AND PUSH1 0x0 SWAP1 DUP2 MSTORE PUSH1 0x8 PUSH1 0x20 MSTORE PUSH1 0x40 DUP1 DUP3 KECCAK256 SLOAD DUP6 DUP5 AND DUP4 MSTORE SWAP2 KECCAK256 SLOAD PUSH2 0xA07 SWAP3 SWAP2 DUP3 AND SWAP2 AND DUP4 PUSH2 0x1269 JUMP JUMPDEST PUSH1 0x0 DUP1 PUSH2 0x189C DUP6 DUP6 DUP6 PUSH2 0x1AF0 JUMP JUMPDEST PUSH1 0x0 PUSH1 0xFF DUP3 AND PUSH1 0x1F DUP2 GT ISZERO PUSH2 0x4C4 JUMPI PUSH1 0x40 MLOAD PUSH32 0xB3512B0C00000000000000000000000000000000000000000000000000000000 DUP2 MSTORE PUSH1 0x4 ADD PUSH1 0x40 MLOAD DUP1 SWAP2 SUB SWAP1 REVERT JUMPDEST DUP3 SLOAD PUSH1 0x0 SWAP1 DUP2 SWAP1 DUP1 ISZERO PUSH2 0x1C31 JUMPI PUSH1 0x0 PUSH2 0x1B0E DUP8 PUSH2 0xD01 PUSH1 0x1 DUP6 PUSH2 0x213A JUMP JUMPDEST PUSH1 0x40 DUP1 MLOAD DUP1 DUP3 ADD SWAP1 SWAP2 MSTORE SWAP1 SLOAD PUSH6 0xFFFFFFFFFFFF DUP1 DUP3 AND DUP1 DUP5 MSTORE PUSH7 0x1000000000000 SWAP1 SWAP3 DIV PUSH1 0x1 PUSH1 0x1 PUSH1 0xD0 SHL SUB AND PUSH1 0x20 DUP5 ADD MSTORE SWAP2 SWAP3 POP SWAP1 DUP8 AND LT ISZERO PUSH2 0x1B7E JUMPI PUSH1 0x40 MLOAD PUSH32 0x2520601D00000000000000000000000000000000000000000000000000000000 DUP2 MSTORE PUSH1 0x4 ADD PUSH1 0x40 MLOAD DUP1 SWAP2 SUB SWAP1 REVERT JUMPDEST DUP1 MLOAD PUSH6 0xFFFFFFFFFFFF DUP1 DUP9 AND SWAP2 AND SUB PUSH2 0x1BCD JUMPI DUP5 PUSH2 0x1BA1 DUP9 PUSH2 0xD01 PUSH1 0x1 DUP7 PUSH2 0x213A JUMP JUMPDEST DUP1 SLOAD PUSH1 0x1 PUSH1 0x1 PUSH1 0xD0 SHL SUB SWAP3 SWAP1 SWAP3 AND PUSH7 0x1000000000000 MUL PUSH6 0xFFFFFFFFFFFF SWAP1 SWAP3 AND SWAP2 SWAP1 SWAP2 OR SWAP1 SSTORE PUSH2 0x1C21 JUMP JUMPDEST PUSH1 0x40 DUP1 MLOAD DUP1 DUP3 ADD SWAP1 SWAP2 MSTORE PUSH6 0xFFFFFFFFFFFF DUP1 DUP9 AND DUP3 MSTORE PUSH1 0x1 PUSH1 0x1 PUSH1 0xD0 SHL SUB DUP1 DUP9 AND PUSH1 0x20 DUP1 DUP6 ADD SWAP2 DUP3 MSTORE DUP12 SLOAD PUSH1 0x1 DUP2 ADD DUP14 SSTORE PUSH1 0x0 DUP14 DUP2 MSTORE SWAP2 SWAP1 SWAP2 KECCAK256 SWAP5 MLOAD SWAP2 MLOAD SWAP1 SWAP3 AND PUSH7 0x1000000000000 MUL SWAP3 AND SWAP2 SWAP1 SWAP2 OR SWAP2 ADD SSTORE JUMPDEST PUSH1 0x20 ADD MLOAD SWAP3 POP DUP4 SWAP2 POP PUSH2 0x18A1 SWAP1 POP JUMP JUMPDEST POP POP PUSH1 0x40 DUP1 MLOAD DUP1 DUP3 ADD SWAP1 SWAP2 MSTORE PUSH6 0xFFFFFFFFFFFF DUP1 DUP6 AND DUP3 MSTORE PUSH1 0x1 PUSH1 0x1 PUSH1 0xD0 SHL SUB DUP1 DUP6 AND PUSH1 0x20 DUP1 DUP6 ADD SWAP2 DUP3 MSTORE DUP9 SLOAD PUSH1 0x1 DUP2 ADD DUP11 SSTORE PUSH1 0x0 DUP11 DUP2 MSTORE SWAP2 DUP3 KECCAK256 SWAP6 MLOAD SWAP3 MLOAD SWAP1 SWAP4 AND PUSH7 0x1000000000000 MUL SWAP2 SWAP1 SWAP4 AND OR SWAP3 ADD SWAP2 SWAP1 SWAP2 SSTORE SWAP1 POP DUP2 PUSH2 0x18A1 JUMP JUMPDEST PUSH1 0x0 DUP2 MLOAD DUP1 DUP5 MSTORE PUSH1 0x0 JUMPDEST DUP2 DUP2 LT ISZERO PUSH2 0x1CB5 JUMPI PUSH1 0x20 DUP2 DUP6 ADD DUP2 ADD MLOAD DUP7 DUP4 ADD DUP3 ADD MSTORE ADD PUSH2 0x1C99 JUMP JUMPDEST POP PUSH1 0x0 PUSH1 0x20 DUP3 DUP7 ADD ADD MSTORE PUSH1 0x20 PUSH1 0x1F NOT PUSH1 0x1F DUP4 ADD AND DUP6 ADD ADD SWAP2 POP POP SWAP3 SWAP2 POP POP JUMP JUMPDEST PUSH1 0x20 DUP2 MSTORE PUSH1 0x0 PUSH2 0x9DB PUSH1 0x20 DUP4 ADD DUP5 PUSH2 0x1C8F JUMP JUMPDEST DUP1 CALLDATALOAD PUSH1 0x1 PUSH1 0x1 PUSH1 0xA0 SHL SUB DUP2 AND DUP2 EQ PUSH2 0x1CFF JUMPI PUSH1 0x0 DUP1 REVERT JUMPDEST SWAP2 SWAP1 POP JUMP JUMPDEST PUSH1 0x0 DUP1 PUSH1 0x40 DUP4 DUP6 SUB SLT ISZERO PUSH2 0x1D17 JUMPI PUSH1 0x0 DUP1 REVERT JUMPDEST PUSH2 0x1D20 DUP4 PUSH2 0x1CE8 JUMP JUMPDEST SWAP5 PUSH1 0x20 SWAP4 SWAP1 SWAP4 ADD CALLDATALOAD SWAP4 POP POP POP JUMP JUMPDEST PUSH1 0x0 DUP1 PUSH1 0x0 PUSH1 0x60 DUP5 DUP7 SUB SLT ISZERO PUSH2 0x1D43 JUMPI PUSH1 0x0 DUP1 REVERT JUMPDEST PUSH2 0x1D4C DUP5 PUSH2 0x1CE8 JUMP JUMPDEST SWAP3 POP PUSH2 0x1D5A PUSH1 0x20 DUP6 ADD PUSH2 0x1CE8 JUMP JUMPDEST SWAP2 POP PUSH1 0x40 DUP5 ADD CALLDATALOAD SWAP1 POP SWAP3 POP SWAP3 POP SWAP3 JUMP JUMPDEST PUSH1 0x0 PUSH1 0x20 DUP3 DUP5 SUB SLT ISZERO PUSH2 0x1D7C JUMPI PUSH1 0x0 DUP1 REVERT JUMPDEST PUSH2 0x9DB DUP3 PUSH2 0x1CE8 JUMP JUMPDEST PUSH32 0xFF00000000000000000000000000000000000000000000000000000000000000 DUP9 AND DUP2 MSTORE PUSH1 0x0 PUSH1 0x20 PUSH1 0xE0 PUSH1 0x20 DUP5 ADD MSTORE PUSH2 0x1DC2 PUSH1 0xE0 DUP5 ADD DUP11 PUSH2 0x1C8F JUMP JUMPDEST DUP4 DUP2 SUB PUSH1 0x40 DUP6 ADD MSTORE PUSH2 0x1DD4 DUP2 DUP11 PUSH2 0x1C8F JUMP JUMPDEST PUSH1 0x60 DUP6 ADD DUP10 SWAP1 MSTORE PUSH1 0x1 PUSH1 0x1 PUSH1 0xA0 SHL SUB DUP9 AND PUSH1 0x80 DUP7 ADD MSTORE PUSH1 0xA0 DUP6 ADD DUP8 SWAP1 MSTORE DUP5 DUP2 SUB PUSH1 0xC0 DUP7 ADD MSTORE DUP6 MLOAD DUP1 DUP3 MSTORE PUSH1 0x20 DUP1 DUP9 ADD SWAP4 POP SWAP1 SWAP2 ADD SWAP1 PUSH1 0x0 JUMPDEST DUP2 DUP2 LT ISZERO PUSH2 0x1E28 JUMPI DUP4 MLOAD DUP4 MSTORE SWAP3 DUP5 ADD SWAP3 SWAP2 DUP5 ADD SWAP2 PUSH1 0x1 ADD PUSH2 0x1E0C JUMP JUMPDEST POP SWAP1 SWAP13 SWAP12 POP POP POP POP POP POP POP POP POP POP POP POP JUMP JUMPDEST PUSH1 0x0 PUSH1 0x20 DUP3 DUP5 SUB SLT ISZERO PUSH2 0x1E4C JUMPI PUSH1 0x0 DUP1 REVERT JUMPDEST POP CALLDATALOAD SWAP2 SWAP1 POP JUMP JUMPDEST DUP1 CALLDATALOAD PUSH1 0xFF DUP2 AND DUP2 EQ PUSH2 0x1CFF JUMPI PUSH1 0x0 DUP1 REVERT JUMPDEST PUSH1 0x0 DUP1 PUSH1 0x0 DUP1 PUSH1 0x0 DUP1 PUSH1 0xC0 DUP8 DUP10 SUB SLT ISZERO PUSH2 0x1E7D JUMPI PUSH1 0x0 DUP1 REVERT JUMPDEST PUSH2 0x1E86 DUP8 PUSH2 0x1CE8 JUMP JUMPDEST SWAP6 POP PUSH1 0x20 DUP8 ADD CALLDATALOAD SWAP5 POP PUSH1 0x40 DUP8 ADD CALLDATALOAD SWAP4 POP PUSH2 0x1EA2 PUSH1 0x60 DUP9 ADD PUSH2 0x1E53 JUMP JUMPDEST SWAP3 POP PUSH1 0x80 DUP8 ADD CALLDATALOAD SWAP2 POP PUSH1 0xA0 DUP8 ADD CALLDATALOAD SWAP1 POP SWAP3 SWAP6 POP SWAP3 SWAP6 POP SWAP3 SWAP6 JUMP JUMPDEST PUSH1 0x0 DUP1 PUSH1 0x0 DUP1 PUSH1 0x0 DUP1 PUSH1 0x0 PUSH1 0xE0 DUP9 DUP11 SUB SLT ISZERO PUSH2 0x1ED7 JUMPI PUSH1 0x0 DUP1 REVERT JUMPDEST PUSH2 0x1EE0 DUP9 PUSH2 0x1CE8 JUMP JUMPDEST SWAP7 POP PUSH2 0x1EEE PUSH1 0x20 DUP10 ADD PUSH2 0x1CE8 JUMP JUMPDEST SWAP6 POP PUSH1 0x40 DUP9 ADD CALLDATALOAD SWAP5 POP PUSH1 0x60 DUP9 ADD CALLDATALOAD SWAP4 POP PUSH2 0x1F0A PUSH1 0x80 DUP10 ADD PUSH2 0x1E53 JUMP JUMPDEST SWAP3 POP PUSH1 0xA0 DUP9 ADD CALLDATALOAD SWAP2 POP PUSH1 0xC0 DUP9 ADD CALLDATALOAD SWAP1 POP SWAP3 SWAP6 SWAP9 SWAP2 SWAP5 SWAP8 POP SWAP3 SWAP6 POP JUMP JUMPDEST PUSH1 0x0 DUP1 PUSH1 0x40 DUP4 DUP6 SUB SLT ISZERO PUSH2 0x1F39 JUMPI PUSH1 0x0 DUP1 REVERT JUMPDEST PUSH2 0x1F42 DUP4 PUSH2 0x1CE8 JUMP JUMPDEST SWAP2 POP PUSH2 0x1F50 PUSH1 0x20 DUP5 ADD PUSH2 0x1CE8 JUMP JUMPDEST SWAP1 POP SWAP3 POP SWAP3 SWAP1 POP JUMP JUMPDEST PUSH1 0x0 DUP1 PUSH1 0x40 DUP4 DUP6 SUB SLT ISZERO PUSH2 0x1F6C JUMPI PUSH1 0x0 DUP1 REVERT JUMPDEST PUSH2 0x1F75 DUP4 PUSH2 0x1CE8 JUMP JUMPDEST SWAP2 POP PUSH1 0x20 DUP4 ADD CALLDATALOAD PUSH4 0xFFFFFFFF DUP2 AND DUP2 EQ PUSH2 0x1F8E JUMPI PUSH1 0x0 DUP1 REVERT JUMPDEST DUP1 SWAP2 POP POP SWAP3 POP SWAP3 SWAP1 POP JUMP JUMPDEST PUSH1 0x1 DUP2 DUP2 SHR SWAP1 DUP3 AND DUP1 PUSH2 0x1FAD JUMPI PUSH1 0x7F DUP3 AND SWAP2 POP JUMPDEST PUSH1 0x20 DUP3 LT DUP2 SUB PUSH2 0x1FCD JUMPI PUSH4 0x4E487B71 PUSH1 0xE0 SHL PUSH1 0x0 MSTORE PUSH1 0x22 PUSH1 0x4 MSTORE PUSH1 0x24 PUSH1 0x0 REVERT JUMPDEST POP SWAP2 SWAP1 POP JUMP JUMPDEST PUSH4 0x4E487B71 PUSH1 0xE0 SHL PUSH1 0x0 MSTORE PUSH1 0x11 PUSH1 0x4 MSTORE PUSH1 0x24 PUSH1 0x0 REVERT JUMPDEST PUSH1 0x1 DUP2 DUP2 JUMPDEST DUP1 DUP6 GT ISZERO PUSH2 0x2024 JUMPI DUP2 PUSH1 0x0 NOT DIV DUP3 GT ISZERO PUSH2 0x200A JUMPI PUSH2 0x200A PUSH2 0x1FD3 JUMP JUMPDEST DUP1 DUP6 AND ISZERO PUSH2 0x2017 JUMPI SWAP2 DUP2 MUL SWAP2 JUMPDEST SWAP4 DUP5 SHR SWAP4 SWAP1 DUP1 MUL SWAP1 PUSH2 0x1FEE JUMP JUMPDEST POP SWAP3 POP SWAP3 SWAP1 POP JUMP JUMPDEST PUSH1 0x0 DUP3 PUSH2 0x203B JUMPI POP PUSH1 0x1 PUSH2 0x4C4 JUMP JUMPDEST DUP2 PUSH2 0x2048 JUMPI POP PUSH1 0x0 PUSH2 0x4C4 JUMP JUMPDEST DUP2 PUSH1 0x1 DUP2 EQ PUSH2 0x205E JUMPI PUSH1 0x2 DUP2 EQ PUSH2 0x2068 JUMPI PUSH2 0x2084 JUMP JUMPDEST PUSH1 0x1 SWAP2 POP POP PUSH2 0x4C4 JUMP JUMPDEST PUSH1 0xFF DUP5 GT ISZERO PUSH2 0x2079 JUMPI PUSH2 0x2079 PUSH2 0x1FD3 JUMP JUMPDEST POP POP PUSH1 0x1 DUP3 SHL PUSH2 0x4C4 JUMP JUMPDEST POP PUSH1 0x20 DUP4 LT PUSH2 0x133 DUP4 LT AND PUSH1 0x4E DUP5 LT PUSH1 0xB DUP5 LT AND OR ISZERO PUSH2 0x20A7 JUMPI POP DUP2 DUP2 EXP PUSH2 0x4C4 JUMP JUMPDEST PUSH2 0x20B1 DUP4 DUP4 PUSH2 0x1FE9 JUMP JUMPDEST DUP1 PUSH1 0x0 NOT DIV DUP3 GT ISZERO PUSH2 0x20C5 JUMPI PUSH2 0x20C5 PUSH2 0x1FD3 JUMP JUMPDEST MUL SWAP4 SWAP3 POP POP POP JUMP JUMPDEST PUSH1 0x0 PUSH2 0x9DB PUSH1 0xFF DUP5 AND DUP4 PUSH2 0x202C JUMP JUMPDEST DUP1 DUP3 MUL DUP2 ISZERO DUP3 DUP3 DIV DUP5 EQ OR PUSH2 0x4C4 JUMPI PUSH2 0x4C4 PUSH2 0x1FD3 JUMP JUMPDEST PUSH1 0x1 PUSH1 0x1 PUSH1 0xD0 SHL SUB DUP2 DUP2 AND DUP4 DUP3 AND ADD SWAP1 DUP1 DUP3 GT ISZERO PUSH2 0x2113 JUMPI PUSH2 0x2113 PUSH2 0x1FD3 JUMP JUMPDEST POP SWAP3 SWAP2 POP POP JUMP JUMPDEST PUSH1 0x1 PUSH1 0x1 PUSH1 0xD0 SHL SUB DUP3 DUP2 AND DUP3 DUP3 AND SUB SWAP1 DUP1 DUP3 GT ISZERO PUSH2 0x2113 JUMPI PUSH2 0x2113 PUSH2 0x1FD3 JUMP JUMPDEST DUP2 DUP2 SUB DUP2 DUP2 GT ISZERO PUSH2 0x4C4 JUMPI PUSH2 0x4C4 PUSH2 0x1FD3 JUMP JUMPDEST DUP1 DUP3 ADD DUP1 DUP3 GT ISZERO PUSH2 0x4C4 JUMPI PUSH2 0x4C4 PUSH2 0x1FD3 JUMP JUMPDEST PUSH4 0x4E487B71 PUSH1 0xE0 SHL PUSH1 0x0 MSTORE PUSH1 0x12 PUSH1 0x4 MSTORE PUSH1 0x24 PUSH1 0x0 REVERT JUMPDEST PUSH4 0x4E487B71 PUSH1 0xE0 SHL PUSH1 0x0 MSTORE PUSH1 0x21 PUSH1 0x4 MSTORE PUSH1 0x24 PUSH1 0x0 REVERT JUMPDEST PUSH4 0x4E487B71 PUSH1 0xE0 SHL PUSH1 0x0 MSTORE PUSH1 0x32 PUSH1 0x4 MSTORE PUSH1 0x24 PUSH1 0x0 REVERT JUMPDEST PUSH1 0x0 DUP3 PUSH2 0x21BF JUMPI PUSH4 0x4E487B71 PUSH1 0xE0 SHL PUSH1 0x0 MSTORE PUSH1 0x12 PUSH1 0x4 MSTORE PUSH1 0x24 PUSH1 0x0 REVERT JUMPDEST POP DIV SWAP1 JUMP INVALID LOG2 PUSH5 0x6970667358 0x22 SLT KECCAK256 PUSH6 0xB77F88DBC3F1 0xE9 DIV 0xCD EXTCODECOPY BASEFEE 0x29 CALLDATALOAD STATICCALL BLOCKHASH 0xAC PUSH13 0x4926BC91B5032264663D42BCB3 LOG3 PUSH5 0x736F6C6343 STOP ADDMOD XOR STOP CALLER 0xDE 0xC2 0xBA 0xCD 0xD2 CREATE JUMPDEST MSIZE 0xDE CALLVALUE 0xDA SWAP12 MSTORE RETURNDATASIZE SELFDESTRUCT DUP12 0xE4 0x2E MCOPY CODESIZE 0xE8 XOR 0xC8 0x2F 0xDB SIGNEXTEND 0xAE PUSH24 0x4387A7240000000000000000000000000000000000000000 "},"methodIdentifiers":{"CLOCK_MODE()":"4bf5d7e9","DOMAIN_SEPARATOR()":"3644e515","allowance(address,address)":"dd62ed3e","approve(address,uint256)":"095ea7b3","balanceOf(address)":"70a08231","checkpoints(address,uint32)":"f1127ed8","clock()":"91ddadf4","decimals()":"313ce567","delegate(address)":"5c19a95c","delegateBySig(address,uint256,uint256,uint8,bytes32,bytes32)":"c3cda520","delegates(address)":"587cde1e","eip712Domain()":"84b0196e","getPastTotalSupply(uint256)":"8e539e8c","getPastVotes(address,uint256)":"3a46b1a8","getVotes(address)":"9ab24eb0","mint(address,uint256)":"40c10f19","name()":"06fdde03","nonces(address)":"7ecebe00","numCheckpoints(address)":"6fcfff45","permit(address,address,uint256,uint256,uint8,bytes32,bytes32)":"d505accf","symbol()":"95d89b41","totalSupply()":"18160ddd","transfer(address,uint256)":"a9059cbb","transferFrom(address,address,uint256)":"23b872dd"}}}}}